:020000040800F2
:100000000000012025080008B5070008BB0700080C
:10001000C1070008C7070008CD070008000000005E
:10002000000000000000000000000000D3070008EE
:10003000DF07000800000000EB070008F7070008D2
:100040006D0800086D0800086D0800086D080008BC
:100050006D0800086D0800086D0800086D080008AC
:100060006D0800086D0800086D0800086D0800089C
:100070006D0800086D0800086D0800086D0800088C
:100080006D0800086D0800086D0800086D0800087C
:10009000050800086D0800086D0800086D080008D4
:1000A0006D0800086D0800086D0800086D0800085C
:1000B0006D0800086D0800086D0800086D0800084C
:1000C0006D0800086D0800086D0800086D0800083C
:1000D0006D0800086D0800086D0800086D0800082C
:1000E0006D0800086D0800086D0800080000000099
:1000F0000000000000000000000000000000000000
:1001000000000000000000006D0800086D080008F5
:100110006D0800086D0800086D0800086D080008EB
:100120006D0800086D0800086D0800086D080008DB
:100130006D08000800000000000000006D080008C5
:100140006D0800086D0800086D0800086D080008BB
:10015000000000000000000000000000000000009F
:10016000000000000000000000000000000000008F
:10017000000000000000000000000000000000007F
:10018000000000000000000000000000000000006F
:10019000000000000000000000000000000000005F
:1001A000000000000000000000000000000000004F
:1001B000000000000000000000000000000000003F
:1001C000000000000000000000000000000000002F
:1001D000000000000000000000000000000000001F
:0401E0005FF8E0F1F3
:1001E40010B5054C237833B9044B13B10448AFF36D
:1001F40000800123237010BD0C00002000000000CB
:100204000824000808B5034B1BB103490348AFF3A6
:10021400008008BD00000000100000200824000831
:1002240053B94AB9002908BF00281CBF4FF0FF3159
:100234004FF0FF3000F076B9ADF1080C6DE904CE53
:1002440000F006F8DDF804E0DDE9022304B07047AD
:100254002DE9F047089E0D4604468846002B4DD1F3
:100264008A42944668D9B2FA82F252B101FA02F390
:10027400C2F1200120FA01F10CFA02FC41EA030860
:1002840094404FEA1C41B8FBF1F71FFA8CFE01FBC6
:10029400178807FB0EF0230C43EA084398420AD957
:1002A4001CEB030307F1FF3580F01E81984240F2F6
:1002B4001B81023F63441B1AB3FBF1F001FB1033B3
:1002C40000FB0EFEA4B244EA0344A6450AD91CEB83
:1002D400040400F1FF3380F00981A64540F2068151
:1002E400644402380021A4EB0E0440EA07401EB126
:1002F4000023D440C6E90043BDE8F0878B4208D907
:10030400002E00F0EE800021C6E900050846BDE895
:10031400F087B3FA83F100294AD1AB4202D3824277
:1003240000F2FC80841A65EB030301209846002E3A
:10033400E2D0C6E90048DFE702B9FFDEB2FA82F292
:10034400002A40F09180A1EB0C0001214FEA1C47E8
:100354001FFA8CFEB0FBF7F307FB1300250C45EAEC
:1003640000450EFB03F0A84208D91CEB050503F178
:10037400FF3802D2A84200F2CE8043462D1AB5FBC4
:10038400F7F007FB10550EFB00FEA4B244EA054447
:10039400A64508D91CEB040400F1FF3502D2A6459A
:1003A40000F2B6802846A4EB0E0440EA03409EE720
:1003B400C1F120078B4022FA07FC4CEA030C25FA12
:1003C40007FA4FEA1C49BAFBF9F820FA07F309FBCC
:1003D40018AA8D401FFA8CFE1D4300FA01F308FB96
:1003E4000EF02C0C44EA0A44A04202FA01F20BD9A2
:1003F4001CEB040408F1FF3A80F08880A04240F22C
:100404008580A8F102086444241AB4FBF9F009FBBE
:10041400104400FB0EFEADB245EA0444A64508D9DB
:100424001CEB040400F1FF356CD2A6456AD90238EE
:10043400644440EA0840A0FB0295A4EB0E04AC42DD
:10044400C846AE4656D353D0002E69D0B3EB08024B
:1004540064EB0E0422FA01F304FA07F71F43CC40BD
:10046400C6E90074002147E70CFA02FCC2F120013E
:1004740025FA01F34FEA1C4720FA01F195400D4398
:10048400B3FBF7F107FB11331FFA8CFE280C40EA8B
:10049400034001FB0EF3834204FA02F408D91CEB77
:1004A400000001F1FF382FD283422DD90239604474
:1004B400C01AB0FBF7F307FB1300ADB245EA0045E1
:1004C40003FB0EF0A84208D91CEB050503F1FF3825
:1004D40016D2A84214D9023B6544281A43EA0141C2
:1004E40038E73146304607E72F46E4E61846F9E692
:1004F4004B45A9D2B9EB020865EB0C0E0138A3E712
:100504004346EAE7284694E74146D1E7D0467BE7ED
:100514006444023847E7023B65442FE7084606E790
:100524003146E9E6704700BF80B500AF0C4B0122AD
:100534001A600B4B08221A61094B00229A60084B7F
:100544000022DA6000F092F900F00EF800F08AF868
:1005540000F06CF801228021024800F07DFEFEE7E5
:1005640028000020000C014080B59CB000AF07F1CA
:10057400380338220021184601F03CFF07F1240318
:1005840000221A605A609A60DA601A613B1D2022C8
:100594000021184601F02EFF0A23BB630123FB64EC
:1005A40010233B6501237B650023FB630223BB65AA
:1005B4000023FB654FF4E0133B6600237B6607F1E1
:1005C4003803184600F06CFE0346002B01D000F0FF
:1005D40093F80F237B620223BB620023FB62002398
:1005E4003B6300237B6307F124030121184601F0D8
:1005F4006DF90346002B01D000F07EF801237B60E7
:100604004FF40073BB603B1D184601F041FB0346E9
:10061400002B01D000F070F8034B01221A6000BFD8
:100624007037BD4680BD00BF7000424280B500AF48
:100634000A4B0B4A1A60094B4FF0FF325A60074BC2
:100644004FF480729A60054801F0A6FD0346002B22
:1006540001D000F051F800BF80BD00BF6800002049
:100664000028004080B588B000AF07F110030022D5
:100674001A605A609A60DA601D4B9B691C4A43F009
:10068400200393611A4B9B6903F02003FB60FB6812
:10069400174B9B69164A43F004039361144B9B69FF
:1006A40003F00403BB60BB68114B9B69104A43F021
:1006B400080393610E4B9B6903F008037B607B681E
:1006C400002280210B4800F0C7FD80233B610123F9
:1006D4007B610223BB610223FB6107F1100319460E
:1006E400044800F035FC00BF2037BD4680BD00BF84
:1006F40000100240000C014080B400AF72B600BF8D
:10070400FEE7000080B485B000AF154B9B69144A26
:1007140043F001039361124B9B6903F00103BB6037
:10072400BB680F4BDB690E4A43F08053D3610C4B1B
:10073400DB6903F080537B607B680A4B5B68FB607A
:10074400FB6823F0E063FB60FB6843F00073FB602D
:10075400044AFB68536000BF1437BD4680BC704731
:10076400001002400000014080B584B000AF786002
:100774007B681B680B4A934210D100F085FD0A4B3D
:10078400DB69094A43F00063D361074BDB6903F07B
:100794000063FB60FB68054B01221A6000BF103741
:1007A400BD4680BD00280040001002403C04424287
:1007B40080B400AFFEE780B400AFFEE780B400AFC2
:1007C400FEE780B400AFFEE780B400AFFEE780B47C
:1007D40000AF00BFBD4680BC704780B400AF00BF0F
:1007E400BD4680BC704780B400AF00BFBD4680BC2E
:1007F400704780B500AF00F07FF800BF80BD0000F7
:1008040080B500AF024800F093F800BF80BD00BF80
:100814004000002080B400AF00BFBD4680BC7047DC
:10082400FFF7F8FF0B480C490C4A002302E0D458A8
:10083400C4500433C4188C42F9D3094A094C002328
:1008440001E013600432A242FBD301F0AFFDFFF7D5
:100854006BFE7047000000200C0000208824000874
:100864000C00002080000020FEE7000080B500AFEF
:10087400084B1B68074A43F010031360032000F081
:1008840033FB0F2000F008F8FFF73CFF0023184665
:1008940080BD00BF0020024080B582B000AF786008
:1008A400124B1A68124B1B7819464FF47A73B3FB38
:1008B400F1F3B2FBF3F3184600F03DFB0346002BC3
:1008C40001D001230EE07B680F2B0AD8002279683F
:1008D4004FF0FF3000F013FB064A7B6813600023DF
:1008E40000E0012318460837BD4680BD0000002003
:1008F400080000200400002080B400AF054B1B78E2
:100904001A46054B1B681344034A136000BFBD46D7
:1009140080BC7047080000207C00002080B400AF39
:10092400024B1B681846BD4680BC70477C00002003
:1009340080B58AB000AF786000237B627B681B6857
:100944005B693B627B681B685B68FB617B681B6857
:100954009B68BB617B681B68DB687B617B681B6889
:100964001B693B617B681B689B69FB603B6A03F006
:100974000103002B7CD0BB6903F00103002B23D0BF
:100984007B681B6801229A60BB6903F00203002B99
:1009940003D0786800F083F916E0BB6903F0040320
:1009A400002B04D07B6A43F400637B620CE0BB69D8
:1009B40003F00803002B04D07B6A43F480537B626A
:1009C40002E0786800F086F9BB6903F48073002BB9
:1009D40024D07B681B684FF480729A60BB6903F46F
:1009E4000073002B03D0786800F062F916E0BB694D
:1009F40003F48063002B04D07B6A43F400537B62CE
:100A04000CE0BB6903F40063002B04D07B6A43F45D
:100A140080437B6202E0786800F065F9BB6903F407
:100A24008033002B24D07B681B684FF480329A609B
:100A3400BB6903F40033002B03D0786800F041F95C
:100A440016E0BB6903F48023002B04D07B6A43F4D3
:100A540000437B620CE0BB6903F40023002B04D049
:100A64007B6A43F480337B6202E0786800F044F9E7
:100A74003B6A03F00803002B0CD07B6903F01003DE
:100A8400002B07D07B6A43F400737B627B681B688E
:100A94001022DA603B6A03F00403002B0BD07B695D
:100AA40003F00803002B06D07B681B680822DA6079
:100AB400786800F033F93B6A03F00203002B09D095
:100AC4007B681B68DB6803F00303002B02D07868A3
:100AD40000F01BF93B6A03F04003002B0CD03B6988
:100AE40003F01003002B07D07B6A43F480637B621E
:100AF4007B681B6810221A613B6A03F02003002BF9
:100B04000BD03B6903F00803002B06D07B681B68FD
:100B140008221A61786800F013F93B6A03F01003A5
:100B2400002B09D07B681B681B6903F00303002BAF
:100B340002D0786800F0FBF83B6A03F40033002B22
:100B44000BD0FB6903F01003002B06D07B681B68F5
:100B540010225A60786800F0FCF83B6A03F4803392
:100B6400002B0BD0FB6903F00803002B06D07B6835
:100B74001B6808225A60786800F0F4F83B6A03F4B2
:100B84000043002B7BD0FB6903F00403002B72D0DD
:100B94003B6A03F48073002B08D0FB6803F0010365
:100BA400002B03D07B6A43F001037B623B6A03F4AE
:100BB4000073002B08D0FB6803F00203002B03D062
:100BC4007B6A43F002037B623B6A03F48063002B7D
:100BD40008D0FB6803F00403002B03D07B6A43F0C6
:100BE40004037B623B6A03F40063002B43D0FB687D
:100BF40003F07003002B3ED0FB6803F07003602BFE
:100C04002BD0602B2ED8502B22D0502B2AD8402BFF
:100C140019D0402B26D8302B10D0302B22D8102BB3
:100C240002D0202B05D01DE07B6A43F008037B62D1
:100C340019E07B6A43F010037B6214E07B6A43F0A3
:100C440020037B620FE07B6A43F040037B620AE08F
:100C54007B6A43F080037B6205E07B6A43F4807324
:100C64007B6200E000BF7B681B689A697B681B6835
:100C740022F070029A617B681B6804225A607B6AC6
:100C8400002B08D07B685A6A7B6A1A437B685A62D5
:100C9400786800F070F800BF2837BD4680BD80B486
:100CA40083B000AF786000BF0C37BD4680BC70478E
:100CB40080B483B000AF786000BF0C37BD4680BC01
:100CC400704780B483B000AF786000BF0C37BD4676
:100CD40080BC704780B483B000AF786000BF0C372D
:100CE400BD4680BC704780B483B000AF786000BF5D
:100CF4000C37BD4680BC704780B483B000AF7860C9
:100D040000BF0C37BD4680BC704780B483B000AFD1
:100D1400786000BF0C37BD4680BC704780B483B098
:100D240000AF786000BF0C37BD4680BC704780B40C
:100D340083B000AF786000BF0C37BD4680BC7047FD
:100D440080B483B000AF786000BF0C37BD4680BC70
:100D5400704780B483B000AF786000BF0C37BD46E5
:100D640080BC704780B483B000AF786000BF0C379C
:100D7400BD4680BC704780B483B000AF786000BFCC
:100D84000C37BD4680BC704780B485B000AF786036
:100D94007B6803F00703FB600C4BDB68BB60BA683D
:100DA4004FF6FF031340BB60FB681A02BB68134392
:100DB40043F0BF6343F40033BB60044ABB68D360B1
:100DC40000BF1437BD4680BC704700BF00ED00E093
:100DD40080B400AF044BDB681B0A03F0070318461A
:100DE400BD4680BC704700BF00ED00E080B483B016
:100DF40000AF03463960FB7197F90730002B0ADB1B
:100E04003B68DAB20C4997F907301201D2B20B44AD
:100E140083F800230AE03B68DAB20849FB7903F05F
:100E24000F03043B1201D2B20B441A7600BF0C37F5
:100E3400BD4680BC704700BF00E100E000ED00E06B
:100E440080B489B000AFF860B9607A60FB6803F0E1
:100E54000703FB61FB69C3F10703042B28BF0423C9
:100E6400BB61FB690433062B02D9FB69033B00E039
:100E740000237B614FF0FF32BB6902FA03F3DA43CC
:100E8400BB681A407B699A404FF0FF317B6901FAD5
:100E940003F3D9437B680B40134318462437BD46FC
:100EA40080BC704780B582B000AF78607B68013B3E
:100EB400B3F1807F01D301230FE00A4A7B68013B31
:100EC40053600F214FF0FF30FFF790FF054B0022D6
:100ED4009A60044B07221A60002318460837BD465F
:100EE40080BD00BF10E000E080B582B000AF786044
:100EF4007868FFF749FF00BF0837BD4680BD80B55D
:100F040086B000AF0346B9607A60FB7300237B614F
:100F1400FFF75EFF78617A68B9687869FFF790FF38
:100F2400024697F90F3011461846FFF75FFF00BFDE
:100F34001837BD4680BD80B582B000AF7860786850
:100F4400FFF7B0FF034618460837BD4680BD0000D2
:100F540080B48BB000AF7860396000237B620023DB
:100F64003B6269E101227B6A02FA03F3FB613B689D
:100F74001B68FA691340BB61BA69FB699A4240F085
:100F840058813B685B689A4A93425ED0984A934280
:100F940075D8984A934258D0964A93426FD8964A45
:100FA400934252D0944A934269D8944A93424CD083
:100FB400924A934263D8924A934246D0904A9342CB
:100FC4005DD8122B2AD8122B59D801A252F823F03B
:100FD4004F100008291000083B1000087D1000087D
:100FE4008310000883100008831000088310000891
:100FF4008310000883100008831000088310000881
:101004008310000883100008831000088310000870
:10101400831000083110000845100008794A9342F3
:1010240013D02CE03B68DB683B6229E03B68DB685B
:1010340004333B6224E03B68DB6808333B621FE017
:101044003B68DB680C333B621AE03B689B68002B0F
:1010540002D104233B6213E03B689B68012B05D15A
:1010640008233B627B68FA691A6109E008233B6242
:101074007B68FA695A6103E000233B6200E000BF29
:10108400BB69FF2B01D87B6801E07B6804337B617B
:10109400BB69FF2B02D87B6A9B0002E07B6A083B9A
:1010A4009B003B617B691A680F213B6901FA03F3DA
:1010B400DB431A40396A3B6901FA03F31A437B693B
:1010C4001A603B685B6803F08053002B00F0B1802A
:1010D4004D4B9B694C4A43F0010393614A4B9B6916
:1010E40003F00103BB60BB68484A7B6A9B08023378
:1010F40052F82330FB607B6A03F003039B000F224A
:1011040002FA03F3DB43FA681340FB607B68404A4E
:10111400934213D07B683F4A93420DD07B683E4A8A
:10112400934207D07B683D4A934201D1032306E0F2
:10113400042304E0022302E0012300E000237A6A8E
:1011440002F0030292009340FA681343FB602F49B4
:101154007B6A9B080233FA6841F823203B685B688A
:1011640003F48013002B06D02D4B9A682C49BB69DD
:1011740013438B6006E02A4B9A68BB69DB4328491A
:1011840013408B603B685B6803F40013002B06D0AC
:10119400234BDA682249BB691343CB6006E0204B3A
:1011A400DA68BB69DB431E491340CB603B685B686C
:1011B40003F40033002B06D0194B5A681849BB6955
:1011C40013434B6006E0164B5A68BB69DB43144972
:1011D40013404B603B685B6803F48033002B21D0E1
:1011E4000F4B1A680E49BB6913430B6021E000BF23
:1011F4000000321000003110000022100000211005
:101204000000121000001110001002400000014004
:1012140000080140000C014000100140001401408E
:10122400000401400B4B1A68BB69DB4309491340B6
:101234000B607B6A01337B623B681A687B6A22FA23
:1012440003F3002B7FF48EAE00BF00BF2C37BD46E6
:1012540080BC70470004014080B483B000AF786064
:101264000B467B8013467B707B78002B03D07A88F7
:101274007B681A6103E07B881A047B681A6100BFEB
:101284000C37BD4680BC704780B400AF034B0122CD
:101294001A6000BFBD4680BC704700BF20000E42EC
:1012A40080B586B000AF78607B68002B01D1012344
:1012B40004E37B681B6803F00103002B00F08780C4
:1012C400924B5B6803F00C03042B0CD08F4B5B68D0
:1012D40003F00C03082B12D18C4B5B6803F48033AE
:1012E400B3F5803F0BD1894B1B6803F40033002B0B
:1012F4006CD07B689B68002B68D10123DEE27B689D
:101304009B68B3F5803F06D1804B1B687F4A43F44A
:10131400803313602EE07B689B68002B0CD17B4BE1
:101324001B687A4A23F480331360784B1B68774A2E
:1013340023F4802313601DE07B689B68B3F5A02F22
:101344000CD1724B1B68714A43F4802313606F4BBA
:101354001B686E4A43F4803313600BE06B4B1B68CD
:101364006A4A23F480331360684B1B68674A23F48A
:10137400802313607B689B68002B13D0FFF7CEFAA1
:10138400386108E0FFF7CAFA02463B69D31A642BB6
:1013940001D9032392E25D4B1B6803F40033002B55
:1013A400F0D014E0FFF7BAFA386108E0FFF7B6FAB4
:1013B40002463B69D31A642B01D903237EE2534BC3
:1013C4001B6803F40033002BF0D100E000BF7B68FE
:1013D4001B6803F00203002B63D04C4B5B6803F0E3
:1013E4000C03002B0BD0494B5B6803F00C03082B58
:1013F4001CD1464B5B6803F48033002B16D1434B5E
:101404001B6803F00203002B05D07B685B69012B8A
:1014140001D0012352E23D4B1B6823F0F8027B68A4
:101424009B69DB00394913430B603AE07B685B69D5
:10143400002B20D0364B01221A60FFF76FFA386177
:1014440008E0FFF76BFA02463B69D31A022B01D975
:10145400032333E22D4B1B6803F00203002BF0D06F
:101464002A4B1B6823F0F8027B689B69DB00274941
:1014740013430B6015E0264B00221A60FFF74EFA67
:10148400386108E0FFF74AFA02463B69D31A022B97
:1014940001D9032312E21D4B1B6803F00203002B46
:1014A400F0D17B681B6803F00803002B3AD07B68FB
:1014B400DB69002B19D0174B01221A60FFF72EFAB3
:1014C400386108E0FFF72AFA02463B69D31A022B77
:1014D40001D90323F2E10D4B5B6A03F00203002BF5
:1014E400F0D0012000F0B6FB1CE00A4B00221A6089
:1014F400FFF714FA38610FE0FFF710FA02463B6970
:10150400D31A022B08D90323D8E100BF00100240EC
:1015140000004242800442429B4B5B6A03F0020398
:10152400002BE9D17B681B6803F00403002B00F057
:10153400A6800023FB75944BDB6903F08053002BDA
:101544000DD1914BDB69904A43F08053D3618E4BAC
:10155400DB6903F08053BB60BB680123FB758B4BD5
:101564001B6803F48073002B18D1884B1B68874ACF
:1015740043F480731360FFF7D1F9386108E0FFF793
:10158400CDF902463B69D31A642B01D9032395E1B3
:101594007E4B1B6803F48073002BF0D07B681B69BF
:1015A400012B06D1784B1B6A774A43F0010313627F
:1015B4002DE07B681B69002B0CD1734B1B6A724AAC
:1015C40023F001031362704B1B6A6F4A23F0040378
:1015D40013621CE07B681B69052B0CD16A4B1B6AE8
:1015E400694A43F004031362674B1B6A664A43F07B
:1015F400010313620BE0644B1B6A634A23F001038B
:101604001362614B1B6A604A23F0040313627B6814
:101614001B69002B15D0FFF781F938610AE0FFF749
:101624007DF902463B69D31A41F28832934201D9CB
:10163400032343E1544B1B6A03F00203002BEED057
:1016440014E0FFF76BF938610AE0FFF767F9024627
:101654003B69D31A41F28832934201D903232DE125
:10166400494B1B6A03F00203002BEED1FB7D012BD7
:1016740005D1454BDB69444A23F08053D3617B6831
:10168400DB6A002B00F08C803F4B5B6803F48033F3
:10169400B3F5803F0ED13C4B5B6803F00C03082B81
:1016A40008D1394BDB6A03F48033B3F5803F01D1B1
:1016B400012303E17B68DB6A022B4ED1324B1B68AA
:1016C40003F08053002B09D02F4BDB6A03F0F002A8
:1016D4007B685B6B9A4201D00123EFE02C4B002224
:1016E4001A60FFF71BF9386108E0FFF717F90246A3
:1016F4003B69D31A642B01D90323DFE0224B1B6817
:1017040003F00063002BF0D11F4BDB6A23F0F002DF
:101714007B685B6B1C491343CB621B4BDB6A23F472
:1017240070627B681B6B18491343CB62184B012210
:101734001A60FFF7F3F8386108E0FFF7EFF80246A4
:101744003B69D31A642B01D90323B7E00E4B1B6802
:1017540003F00063002BF0D022E00B4BDB6A0A4A53
:1017640023F48033D3620A4B00221A60FFF7D6F8C1
:1017740038610FE0FFF7D2F802463B69D31A642BB5
:1017840008D903239AE000BF001002400070004013
:10179400680042424B4B1B6803F00063002BE9D105
:1017A4007B681B6A002B00F08880464B5B6803F063
:1017B4000C03082B68D07B681B6A022B4DD1424B6B
:1017C40000221A60FFF7AAF8386108E0FFF7A6F8CC
:1017D40002463B69D31A022B01D903236EE0394B2D
:1017E4001B6803F00073002BF0D17B685B6AB3F5D0
:1017F400803F0FD1334BDA6A7B685B68314913430E
:10180400CB62304BDB6A23F00F027B68DB682D4927
:101814001343CB622B4B5B6823F474127B68596AC5
:101824007B689B6A0B43274913434B60264B012279
:101834001A60FFF773F8386108E0FFF76FF80246A3
:101844003B69D31A022B01D9032337E01D4B1B68D4
:1018540003F00073002BF0D02FE01B4B00221A6022
:10186400FFF75CF8386108E0FFF758F802463B6977
:10187400D31A022B01D9032320E0124B1B6803F077
:101884000073002BF0D118E07B681B6A012B01D197
:10189400012313E00B4B5B68FB60FB6803F48032AD
:1018A4007B685B6A9A4206D1FB6803F470127B681A
:1018B4009B6A9A4201D0012300E00023184618379E
:1018C400BD4680BD001002406000424280B584B035
:1018D40000AF786039607B68002B01D10123D0E030
:1018E4006A4B1B6803F007033A689A4210D9674BA6
:1018F4001B6823F0070265493B6813430B60634B85
:101904001B6803F007033A689A4201D00123B8E048
:101914007B681B6803F00203002B20D07B681B68E4
:1019240003F00403002B05D0594B5B68584A43F479
:10193400E06353607B681B6803F00803002B05D049
:10194400534B5B68524A43F460535360504B5B689B
:1019540023F0F0027B689B684D4913434B607B681E
:101964001B6803F00103002B40D07B685B68012BEC
:1019740007D1474B1B6803F40033002B15D1012317
:101984007FE07B685B68022B07D1414B1B6803F047
:101994000073002B09D1012373E03D4B1B6803F056
:1019A4000203002B01D101236BE0394B5B6823F068
:1019B40003027B685B68364913434B60FEF7AEFF56
:1019C400F8600AE0FEF7AAFF0246FB68D31A41F268
:1019D4008832934201D9032353E02D4B5B6803F013
:1019E4000C027B685B689B009A42EBD1274B1B6817
:1019F40003F007033A689A4210D2244B1B6823F081
:101A0400070222493B6813430B60204B1B6803F019
:101A140007033A689A4201D0012332E07B681B68CD
:101A240003F00403002B08D0194B5B6823F4E06235
:101A34007B68DB68164913434B607B681B6803F0C3
:101A44000803002B09D0124B5B6823F460527B68B7
:101A54001B69DB000E4913434B6000F021F802467A
:101A64000B4B5B681B0903F00F030A49CB5C22FA9A
:101A740003F3094A1360094B1B681846FEF70CFF71
:101A8400002318461037BD4680BD00BF0020024029
:101A94000010024020240008000000200400002060
:101AA4002DE9B04F8EB000AF0023FB620023BB6270
:101AB40000237B6300237B6200233B6300233B62A0
:101AC4000023FB614E4B5B68FB62FB6A03F00C0373
:101AD400042B02D0082B03D089E04A4B3B6389E0F6
:101AE400FB6A9B0C03F00F02474B9B5C7B62FB6A17
:101AF40003F48033002B72D0414BDB6A03F00F02F6
:101B0400424B9B5CBB623E4BDB6A03F48033002B8D
:101B140053D03B4BDB6A1B0903F00F0301333B62D9
:101B2400374BDB6A1B0A03F00F030233FB61FB69CB
:101B340000229A4693467B6A00223B617A613B69A4
:101B440003FB0BF27B690AFB03F313443A69AAFB18
:101B540002010B4419462B4B03FB01F2002300FB4B
:101B640003F31344274AA0FB02452B441D463B6A5A
:101B74000022BB60FA60BB6A00223B607A60D7E94E
:101B840002010B46D7E900AB524602FB03F25B4667
:101B940084460CFB03F3134402465146A2FB01891D
:101BA4004B44994642464B4620462946FEF738FBAD
:101BB40002460B4613467B6307E07B6A114A03FB2C
:101BC40002F2BB6AB2FBF3F37B630F4B5B7B1A46F7
:101BD4007B6A934208D17B6B5B087B6304E07B6A7E
:101BE4000B4A02FB03F37B637B6B3B6302E0094B11
:101BF4003B6300BF3B6B18463837BD46BDE8B08F2A
:101C04000010024040787D01382400084824000870
:101C140000093D0000127A0080B400AF024B1B683B
:101C24001846BD4680BC70470000002080B500AF58
:101C3400FFF7F2FF0246054B5B68DB0A03F007037C
:101C44000349CB5C22FA03F3184680BD001002401E
:101C54003024000880B485B000AF78600A4B1B685C
:101C64000A4AA2FB03235B0A7A6802FB03F3FB60C4
:101C740000BFFB685A1EFA60002BF9D100BF00BFF9
:101C84001437BD4680BC704700000020D34D62105D
:101C940080B588B000AF786000237B6100233B618E
:101CA4000023FB617B681B6803F00103002B7DD0DC
:101CB4000023FB768B4BDB6903F08053002B0DD1A3
:101CC400884BDB69874A43F08053D361854BDB69DA
:101CD40003F08053FB60FB680123FB76824B1B6897
:101CE40003F48073002B18D17F4B1B687E4A43F4A6
:101CF40080731360FEF712FE786108E0FEF70EFEB3
:101D040002467B69D31A642B01D90323E5E0764BA1
:101D14001B6803F48073002BF0D0724B1B6A03F42E
:101D240040733B613B69002B2ED07B685B6803F4F6
:101D340040733A699A4227D06A4B1B6A23F4407372
:101D44003B616A4B01221A60684B00221A60654AA3
:101D54003B6913623B6903F00103002B14D0FEF7C7
:101D6400DDFD78610AE0FEF7D9FD02467B69D31AEE
:101D740041F28832934201D90323AEE0594B1B6AE6
:101D840003F00203002BEED0564B1B6A23F440727F
:101D94007B685B68534913430B62FB7E012B05D1BF
:101DA400504BDB694F4A23F08053D3617B681B6837
:101DB40003F00203002B08D04A4B5B6823F4404233
:101DC4007B689B68474913434B607B681B6803F03F
:101DD4000403002B08D0434BDB6A23F400327B68F6
:101DE400DB6840491343CB627B681B6803F008033C
:101DF400002B08D03B4BDB6A23F480227B681B69F1
:101E040038491343CB62374BDB6A03F40033002BAE
:101E140005D1344BDB6A03F48023002B01D001236A
:101E2400FB61FB69012B48D12E4B1B6803F08053E7
:101E3400002B38D12B4B1B6803F08063002B09D097
:101E4400284BDB6A03F0F0027B689B699A4201D05D
:101E5400012342E0234BDB6A23F0F0027B689B6999
:101E640020491343CB621F4BDB6A23F470427B6827
:101E74005B691C491343CB621D4B01221A60FEF7B8
:101E84004DFD786108E0FEF749FD02467B69D31AEF
:101E9400642B01D9032320E0124B1B6803F0005389
:101EA400002BF0D009E00F4BDB6A03F470427B682F
:101EB4005B699A4201D001230FE07B681B6803F041
:101EC4001003002B08D0074B5B6823F480027B6867
:101ED400DB69044913434B60002318462037BD4691
:101EE40080BD00BF00100240007000404004424228
:101EF4007000424280B58AB000AF78600023FB6175
:101F040000237B620023BB6100237B6100233B61D0
:101F14000023FB600023BB6000233B627B68013B22
:101F24000F2B00F21D8101A252F823F0E5200008D6
:101F340049210008652100084320000865210008A4
:101F44006521000865210008952000086521000826
:101F54006521000865210008652100086521000845
:101F64006521000865210008711F0008834B5B6828
:101F7400BB60824B1B6803F08073002B00F0F2807F
:101F8400BB689B0C03F00F037D4AD35CBB61BB6849
:101F940003F48033002B3BD0784BDB6A03F00F0350
:101FA400784AD35CFB61754BDB6A03F48033002B06
:101FB4001CD0724BDB6A1B0903F00F030133FB6077
:101FC4006E4BDB6A1B0A03F00F0302337B616E4A1C
:101FD400FB68B2FBF3F37A6903FB02F2FB69B2FB21
:101FE400F3F2BB6902FB03F37B6207E0664AFB6919
:101FF400B2FBF3F2BB6902FB03F37B62604B5B7BD6
:102004001A46BB69934208D17B6A5B087B6204E091
:10201400BB695E4A02FB03F37B62584B5B6803F4C3
:102024008003B3F5800F02D17B6A3B629AE07B6A3E
:102034005B00574AA2FB03235B083B6292E04F4BD1
:10204400DB6A03F40033002B03D1FFF729FD386268
:102054008AE04A4B1B6803F08053002B00F0848015
:10206400464BDB6A1B0903F00F030133FB60434B50
:10207400DB6A1B0B03F00F0302333B61424AFB682C
:10208400B2FBF3F33A6902FB03F35B003B626BE0E0
:102094003A4BDB6A03F48023002B03D1FFF700FDE6
:1020A400386263E0354B1B6803F08053002B5DD02E
:1020B400324BDB6A1B0903F00F030133FB602F4B28
:1020C400DB6A1B0B03F00F0302333B612E4AFB68F0
:1020D400B2FBF3F33A6902FB03F35B003B6245E0B6
:1020E400264B1B6ABB60BB6803F44073B3F5807F67
:1020F40008D1BB6803F00203002B03D04FF4004364
:102104003B621EE0BB6803F44073B3F5007F09D162
:102114001A4B5B6A03F00203002B03D049F64043D9
:102124003B620EE0BB6803F44073B3F5407F1FD1FC
:10213400124B1B6803F40033002B19D0154B3B6280
:1021440016E015E0FFF772FD02460C4B5B689B0B33
:1021540003F0030301335B00B2FBF3F33B6208E0DB
:1021640000BF06E000BF04E000BF02E000BF00E0E3
:1021740000BF3B6A18462837BD4680BD00100240A8
:10218400582400086824000840787D0100093D00B7
:10219400ABAAAAAAF0FA020080B584B000AF7860B6
:1021A4000023FB607B68002B01D101237AE07B686C
:1021B4005B7CDBB2002B05D17B6800221A74786843
:1021C400FEF7D2FA7B6802225A74786800F070F83D
:1021D4000346002B04D07B6804225A74012361E077
:1021E400786800F092F80346002B04D07B68042240
:1021F4005A74012356E07B681B685A687B681B6825
:1022040022F007025A607B689B68002B05D0274B9D
:102214001B6B264A23F001031363244BDB6A23F46C
:1022240060727B689B6821491343CB627B685B685F
:10223400B3F1FF3F03D07B685B68FB600EE00120D5
:10224400FFF758FEF860FB68002B04D17B6804227A
:102254005A74012326E0FB68013BFB60FB681A0CFF
:102264007B681B6802F00F029A607B681B68FA683F
:1022740092B2DA60786800F070F80346002B04D05C
:102284007B6804225A7401230CE07B680022DA7311
:102294007B6801225A737B6801229A737B6801224E
:1022A4005A74002318461037BD4680BD006C0040A8
:1022B40080B584B000AF78600023FB607B68002B9E
:1022C40001D101231DE07B681B685A687B681B6889
:1022D40022F008025A60FEF721FBF86009E0FEF7DD
:1022E4001DFB0246FB68D31AB3F57A7F01D9032399
:1022F40007E07B681B685B6803F00803002BEED0E3
:10230400002318461037BD4680BD80B584B000AFA9
:1023140078600023FB60FEF701FBF86009E0FEF73C
:10232400FDFA0246FB68D31AB3F57A7F01D9032379
:102334000FE07B681B685B6803F02003002BEED082
:102344007B681B685A687B681B6842F010025A60FD
:10235400002318461037BD4680BD80B584B000AF59
:1023640078600023FB607B681B685A687B681B6885
:1023740022F010025A60FEF7D1FAF86009E0FEF785
:10238400CDFA0246FB68D31AB3F57A7F01D9032349
:1023940007E07B681B685B6803F02003002BEED02A
:1023A400002318461037BD4680BD000070B50026D6
:1023B4000C4D0D4C641BA410A64209D100F022F868
:1023C40000260A4D0A4C641BA410A64205D170BD18
:1023D40055F8043B98470136EEE755F8043B984717
:1023E4000136F2E7802400088024000880240008D5
:1023F4008424000803460244934200D1704703F842
:10240400011BF9E7F8B500BFF8BC08BC9E4670474D
:0C241400F8B500BFF8BC08BC9E4670473D
:102420000000000000000000010203040607080984
:10243000000000000102030400000405060708096B
:1024400000000000000D000001020304050607085B
:10245000090A0B0C0D0E0F100000040506070809F1
:1024600000000000000D000001020304050607083B
:08247000090A0B0C0D0E0F1000
:08247800DCDDFF7F0100000024
:042480000902000845
:04248400E501000866
:0C2488000024F40010000000010000001F
:0400000508000825C2
:00000001FF
