:020000040800F2
:100000000000012069110008F9100008FF10000825
:10001000051100080B110008111100080000000074
:1000200000000000000000000000000017110008A0
:1000300023110008000000002F1100083B110008E8
:10004000B1110008B1110008B1110008B111000888
:10005000B1110008B1110008B1110008B111000878
:10006000B1110008B1110008B1110008B111000868
:10007000B1110008B1110008B1110008B111000858
:10008000B1110008B1110008B1110008B111000848
:1000900049110008B1110008B1110008B1110008A0
:1000A000B1110008B1110008B1110008B111000828
:1000B000B1110008B1110008B1110008B111000818
:1000C000B1110008B1110008B1110008B111000808
:1000D000B1110008B1110008B1110008B1110008F8
:1000E000B1110008B1110008B111000800000000B2
:1000F0000000000000000000000000000000000000
:100100000000000000000000B1110008B11100085B
:10011000B1110008B1110008B1110008B1110008B7
:10012000B1110008B1110008B1110008B1110008A7
:10013000B11100080000000000000000B11100082B
:10014000B1110008B1110008B1110008B111000887
:10015000000000000000000000000000000000009F
:10016000000000000000000000000000000000008F
:10017000000000000000000000000000000000007F
:10018000000000000000000000000000000000006F
:10019000000000000000000000000000000000005F
:1001A000000000000000000000000000000000004F
:1001B000000000000000000000000000000000003F
:1001C000000000000000000000000000000000002F
:1001D000000000000000000000000000000000001F
:0401E0005FF8E0F1F3
:1001E40010B5054C237833B9044B13B10448AFF36D
:1001F40000800123237010BD1000002000000000C7
:100204000853000808B5034B1BB103490348AFF377
:10021400008008BD000000001400002008530008FE
:1002240053B94AB9002908BF00281CBF4FF0FF3159
:100234004FF0FF3000F076B9ADF1080C6DE904CE53
:1002440000F006F8DDF804E0DDE9022304B07047AD
:100254002DE9F047089E0D4604468846002B4DD1F3
:100264008A42944668D9B2FA82F252B101FA02F390
:10027400C2F1200120FA01F10CFA02FC41EA030860
:1002840094404FEA1C41B8FBF1F71FFA8CFE01FBC6
:10029400178807FB0EF0230C43EA084398420AD957
:1002A4001CEB030307F1FF3580F01E81984240F2F6
:1002B4001B81023F63441B1AB3FBF1F001FB1033B3
:1002C40000FB0EFEA4B244EA0344A6450AD91CEB83
:1002D400040400F1FF3380F00981A64540F2068151
:1002E400644402380021A4EB0E0440EA07401EB126
:1002F4000023D440C6E90043BDE8F0878B4208D907
:10030400002E00F0EE800021C6E900050846BDE895
:10031400F087B3FA83F100294AD1AB4202D3824277
:1003240000F2FC80841A65EB030301209846002E3A
:10033400E2D0C6E90048DFE702B9FFDEB2FA82F292
:10034400002A40F09180A1EB0C0001214FEA1C47E8
:100354001FFA8CFEB0FBF7F307FB1300250C45EAEC
:1003640000450EFB03F0A84208D91CEB050503F178
:10037400FF3802D2A84200F2CE8043462D1AB5FBC4
:10038400F7F007FB10550EFB00FEA4B244EA054447
:10039400A64508D91CEB040400F1FF3502D2A6459A
:1003A40000F2B6802846A4EB0E0440EA03409EE720
:1003B400C1F120078B4022FA07FC4CEA030C25FA12
:1003C40007FA4FEA1C49BAFBF9F820FA07F309FBCC
:1003D40018AA8D401FFA8CFE1D4300FA01F308FB96
:1003E4000EF02C0C44EA0A44A04202FA01F20BD9A2
:1003F4001CEB040408F1FF3A80F08880A04240F22C
:100404008580A8F102086444241AB4FBF9F009FBBE
:10041400104400FB0EFEADB245EA0444A64508D9DB
:100424001CEB040400F1FF356CD2A6456AD90238EE
:10043400644440EA0840A0FB0295A4EB0E04AC42DD
:10044400C846AE4656D353D0002E69D0B3EB08024B
:1004540064EB0E0422FA01F304FA07F71F43CC40BD
:10046400C6E90074002147E70CFA02FCC2F120013E
:1004740025FA01F34FEA1C4720FA01F195400D4398
:10048400B3FBF7F107FB11331FFA8CFE280C40EA8B
:10049400034001FB0EF3834204FA02F408D91CEB77
:1004A400000001F1FF382FD283422DD90239604474
:1004B400C01AB0FBF7F307FB1300ADB245EA0045E1
:1004C40003FB0EF0A84208D91CEB050503F1FF3825
:1004D40016D2A84214D9023B6544281A43EA0141C2
:1004E40038E73146304607E72F46E4E61846F9E692
:1004F4004B45A9D2B9EB020865EB0C0E0138A3E712
:100504004346EAE7284694E74146D1E7D0467BE7ED
:100514006444023847E7023B65442FE7084606E790
:100524003146E9E6704700BFB0B588B000AF994BDB
:1005340001221A60974B08221A61964B00229A6096
:10054400944B0022DA6000F033FE00F0C3F900F0AF
:1005540079FB00F021FA00F0D1FA00F07DFA00F006
:100564001DFB00F095FA00F043FB002280218A482D
:1005740001F069FE01220221884801F064FE8849E5
:10058400002004F06DFE00F0C5FB0346FB7500235C
:10059400BB7500237B750121824801F03DFE0346B3
:1005A400002B14BF01230023BB750A2000F062FE58
:1005B400BB7D1A467C49002004F052FEFB7D1A469E
:1005C4007A49002004F04CFEA0E01E220021784865
:1005D40004F090FE41F288331E227549754803F0F9
:1005E400C8FF0346FB73FB7B002B42D11E23BB6079
:1005F4007149002004F034FE0023FB610BE06C4AD7
:10060400FB6913441B781A466C49002004F028FE49
:10061400FB690133FB61FA69BB689A42EFDB684905
:10062400002004F01DFE624B1B78632B2DD165491D
:10063400002004F015FEFB7D202B06D1624900202A
:1006440004F00EFE5A4B1122DA71604B584A92E8BC
:10065400030083E803005E4B5C4A4E495D4801F0A9
:100664004DF80346002B10D15B49002004F0F8FD3F
:100674000BE0FB7B032B04D15849002004F0F0FD70
:1006840003E05749002004F0EBFD494B1B78632B32
:100694000ED1474B5B7F732B11D009E051490020E9
:1006A40004F0DEFDF91D64230122424803F061FFDA
:1006B400404B1B681B6803F02003202BEED03C4BFF
:1006C4001B78632B03D03A4B5B7F732B1ED1464BB5
:1006D40000221A70454A364B14461D460FCD0FC4EE
:1006E40095E80F0007C42380404B1B781A46404905
:1006F400002004F0B5FD3D4B5B7F1A463D490020C8
:1007040004F0AEFD3C49002004F0AAFD364B1B78F2
:10071400002B7FF45AAF14220021384804F0EAFD7C
:100724004FF47A7314223549354803F022FF034607
:100734003B753B7D002B40F0A7800121194801F057
:100744006BFD0346002B14BF012300237B750A2095
:1007540000F090FD7B7D1A462A49002004F080FDBC
:100764007B7D83F00103DBB2002B09D0BB7D002B22
:1007740006D01E4B5022DA762349002004F070FD87
:1007840014233B612149002004F06AFD0023BB616E
:100794004AE000BF2C000020000C01400010014082
:1007A4002053000800080140345300085453000843
:1007B400500000208001002068530008785300088E
:1007C4008053000884530008A45300084400002008
:1007D4004C000020A4000020C0530008D05300089F
:1007E400F05300080C54000800000020840000208E
:1007F40028540008345400084454000870000020B1
:10080400C801002060540008805400089454000873
:10081400254ABB6913441B781A462449002004F076
:100824001FFDBB690133BB61BA693B699A42EFDBC7
:100834001F49002004F014FD1B4B1B78662B2FD19D
:10084400194BDB7C772B2BD11A49002004F008FDCF
:1008540000220221184801F0F6FC1849002004F097
:10086400FFFC4FF47A7000F005FD4FF4FA631E228A
:100874001349144803F0FAFD0346002B10D1124922
:10088400002004F0EDFC0BE03B7D032B04D10F4969
:10089400002004F0E5FC03E00D49002004F0E0FC36
:1008A4000A2000F0E7FC89E6700000207853000875
:1008B40080530008A454000800100140C8540008E4
:1008C40084000020C8010020DC540008F85400080B
:1008D4001855000880B59CB000AF07F138033822E2
:1008E4000021184604F006FD07F1240300221A60D3
:1008F4005A609A60DA601A613B1D20220021184672
:1009040004F0F8FC0A23BB630123FB6410233B655A
:1009140001237B650023FB630223BB650023FB6586
:100924004FF4E0133B6600237B6607F13803184657
:1009340001F0AEFC0346002B01D000F013FA0F23A4
:100944007B620223BB620023FB6200233B63002320
:100954007B6307F124030121184601F0AFFF03462E
:10096400002B01D000F0FEF901237B604FF40073EB
:10097400BB603B1D184602F097F90346002B01D0DB
:1009840000F0F0F9034B01221A6000BF7037BD4636
:1009940080BD00BF7000424280B58AB000AF2C4BCE
:1009A4002C4A1A602A4B09225A60294B00229A6069
:1009B400274B0022DA60264B4FF440321A61244B55
:1009C4004FF400125A61224B00221A76204B002267
:1009D4005A761F4B00229A761D4B0022DA761C4B66
:1009E40000221A771A4B00225A77194800F066FC45
:1009F4000346002B01D000F0B5F900237B610023EE
:100A0400BB610123FB6100233B6000237B60002367
:100A1400BB600023FB6000233B6101233B620E2388
:100A24007B623B4619460A4800F044FD0346002B0E
:100A340001D000F097F9064800F01CFE0346002B95
:100A440001D000F08FF900BF2837BD4680BD00BF3C
:100A5400A40000200064004080B500AF0A4B0B4A9C
:100A64001A60094B4FF0FF325A60074B4FF4807203
:100A74009A60054802F09CFB0346002B01D000F06D
:100A840071F900BF80BD00BFCC00002000280040E9
:100A940080B500AF174B184A1A60164B4FF4827298
:100AA4005A60144B00229A60124B0022DA60114BF8
:100AB40000221A610F4B00225A610E4B4FF4007250
:100AC4009A610C4B0022DA610A4B00221A62094B2C
:100AD40000225A62074B00229A62064B0A22DA620B
:100AE400044802F06EFC0346002B01D000F03AF9F2
:100AF40000BF80BDE00000200030014080B586B01A
:100B040000AF07F1080300221A605A609A60DA60A5
:100B14003B4600221A605A601E4B1F4A1A601D4B46
:100B240000225A601B4B00229A601A4B4FF6FF7248
:100B3400DA60184B00221A61164B00225A61154BD9
:100B440000229A61134803F0C3F90346002B01D035
:100B540000F008F94FF48053BB6007F1080319460D
:100B64000C4803F004FA0346002B01D000F0FAF815
:100B740000233B6000237B603B461946054803F095
:100B8400BFFB0346002B01D000F0ECF800BF183780
:100B9400BD4680BD38010020002C014080B500AF67
:100BA400114B124A1A60104B4FF4E1325A600E4B4B
:100BB40000229A600C4B0022DA600B4B00221A616F
:100BC400094B0C225A61084B00229A61064B002201
:100BD400DA61054803F0FAFB0346002B01D000F06C
:100BE400C1F800BF80BD00BF800100200038014073
:100BF40080B500AF114B124A1A60104B4FF41652D5
:100C04005A600E4B00229A600C4B0022DA600B4BA8
:100C140000221A61094B0C225A61084B00229A6186
:100C2400064B0022DA61054803F0D0FB0346002B93
:100C340001D000F097F800BF80BD00BFC8010020BC
:100C44000048004080B588B000AF07F110030022CF
:100C54001A605A609A60DA602B4B9B692A4A43F007
:100C640020039361284B9B6903F02003FB60FB681E
:100C7400254B9B69244A43F004039361224B9B69EF
:100C840003F00403BB60BB681F4B9B691E4A43F01F
:100C9400100393611C4B9B6903F010037B607B681A
:100CA400194B9B69184A43F008039361164B9B69DF
:100CB40003F008033B603B6800228021134801F0E5
:100CC400C2FA80233B6101237B610223BB610223BF
:100CD400FB6107F1100319460C4801F019F91023C0
:100CE4003B6101237B610223FB6107F11003194679
:100CF400074801F00DF901221021054801F0A3FA7B
:100D040000BF2037BD4680BD00100240000C0140EA
:100D14000008014080B582B000AFFF23FB710022C0
:100D240010210E4801F08FFA9F23FB70F91C4FF03D
:100D3400FF3301220A4802F0C8FB391D4FF0FF338C
:100D44000422074802F004FD01221021034801F0A7
:100D54007AFAFB7918460837BD4680BD0008014081
:100D6400E000002080B400AF72B600BFFEE70000D0
:100D740080B485B000AF154B9B69144A43F001035E
:100D84009361124B9B6903F00103BB60BB680F4B7B
:100D9400DB690E4A43F08053D3610C4BDB6903F0EB
:100DA40080537B607B680A4B5B68FB60FB6823F0C5
:100DB400E063FB60FB6843F00073FB60044AFB687C
:100DC400536000BF1437BD4680BC7047001002401A
:100DD4000000014080B58AB000AF786007F11403C9
:100DE40000221A605A609A60DA607B681B68294A9C
:100DF40093424BD1284BDB69274A43F00073D361FC
:100E0400254BDB6903F000733B613B69224B9B6913
:100E1400214A43F0080393611F4B9B6903F00803C5
:100E2400FB60FB684FF480737B610023BB6100238C
:100E3400FB6107F114031946184801F069F84FF4EF
:100E440000737B610223BB6103233B6207F114033C
:100E54001946124801F05CF8114B5B687B627B6AAF
:100E640023F4C0437B627B6A43F0E0637B627B6A6A
:100E740043F480437B620A4A7B6A53600022002168
:100E8400142001F00EF8142001F027F800BF2837D1
:100E9400BD4680BD0064004000100240000C0140CB
:100EA4000000014080B584B000AF78607B681B68A7
:100EB4000B4A934210D101F0DFF90A4BDB69094A6E
:100EC40043F00063D361074BDB6903F00063FB600D
:100ED400FB68054B01221A6000BF1037BD4680BD78
:100EE40000280040001002403C04424280B588B013
:100EF40000AF786007F1100300221A605A609A600C
:100F0400DA607B681B681B4A93422FD11A4B9B699A
:100F1400194A43F480539361174B9B6903F480533C
:100F2400FB60FB68144B9B69134A43F00403936111
:100F3400114B9B6903F00403BB60BB68A0233B61B6
:100F440002237B610323FB6107F1100319460B485D
:100F540000F0DEFF40233B6100237B610023BB6183
:100F640007F110031946054800F0D2FF00BF2037EF
:100F7400BD4680BD00300140001002400008014021
:100F840080B485B000AF78607B681B68094A9342DF
:100F94000BD1094B9B69084A43F400639361064BE8
:100FA4009B6903F40063FB60FB6800BF1437BD4614
:100FB40080BC7047002C01400010024080B58CB00A
:100FC40000AF786007F11C0300221A605A609A602F
:100FD400DA607B681B68414A934232D1404B9B697B
:100FE4003F4A43F4804393613D4B9B6903F4804340
:100FF400BB61BB693A4B9B69394A43F00403936173
:10100400374B9B6903F004037B617B694FF40073E6
:10101400FB6102233B620323BB6207F11C031946F5
:10102400304800F075FF4FF48063FB6100233B629E
:1010340000237B6207F11C0319462A4800F068FF6D
:1010440048E07B681B68284A934243D1244BDB6900
:10105400234A43F48023D361214BDB6903F48023C7
:101064003B613B691E4B9B691D4A43F0100393612E
:101074001B4B9B6903F01003FB60FB684FF4806318
:10108400FB6102233B620323BB6207F11C03194685
:10109400164800F03DFF4FF40063FB6100233B6200
:1010A40000237B6207F11C031946104800F030FF4F
:1010B4000F4B5B68FB62FB6A23F03003FB62FB6A45
:1010C40043F0E063FB62FB6A43F01003FB62084AEF
:1010D400FB6A536000BF3037BD4680BD0038014015
:1010E4000010024000080140004800400010014088
:1010F4000000014080B400AFFEE780B400AFFEE71B
:1011040080B400AFFEE780B400AFFEE780B400AF68
:10111400FEE780B400AF00BFBD4680BC704780B41A
:1011240000AF00BFBD4680BC704780B400AF00BFB5
:10113400BD4680BC704780B500AF00F07FF800BFAB
:1011440080BD000080B500AF024800F0A6FB00BFE0
:1011540080BD00BFA400002080B400AF00BFBD4626
:1011640080BC7047FFF7F8FF0B480C490C4A00237A
:1011740002E0D458C4500433C4188C42F9D3094A49
:10118400094C002301E013600432A242FBD304F0B3
:101194007FF8FFF7C9F97047000000201000002015
:1011A400C455000810000020CC060020FEE7000013
:1011B40080B500AF084B1B68074A43F01003136067
:1011C400032000F063FE0F2000F008F8FFF7D0FDC5
:1011D4000023184680BD00BF0020024080B582B0C5
:1011E40000AF7860124B1A68124B1B7819464FF403
:1011F4007A73B3FBF1F3B2FBF3F3184600F07BFE12
:101204000346002B01D001230EE07B680F2B0AD884
:10121400002279684FF0FF3000F043FE064A7B68F5
:101224001360002300E0012318460837BD4680BD43
:10123400040000200C0000200800002080B400AF4F
:10124400054B1B781A46054B1B681344034A13606D
:1012540000BFBD4680BC70470C0000201002002077
:1012640080B400AF024B1B681846BD4680BC704773
:101274001002002080B584B000AF7860FFF7F0FF63
:10128400B8607B68FB60FB68B3F1FF3F05D00A4B95
:101294001B781A46FB681344FB6000BFFFF7E0FFAE
:1012A4000246BB68D31AFA689A42F7D800BF00BF57
:1012B4001037BD4680BD00BF0C00002080B584B04F
:1012C40000AF78607B68002B01D10123EDE07B68DF
:1012D40093F82030DBB2002B02D17868FFF77AFD57
:1012E4007B681B681A687B681B6842F001021A60FD
:1012F400FFF7B6FFF86012E0FFF7B2FF0246FB68A3
:10130400D31A0A2B0BD97B685B6A43F400327B68DF
:101314005A627B68052283F820200123C5E07B689C
:101324001B685B6803F00103002BE5D07B681B6836
:101334001A687B681B6822F002021A60FFF790FFAC
:10134400F86012E0FFF78CFF0246FB68D31A0A2B01
:101354000BD97B685B6A43F400327B685A627B6812
:10136400052283F8202001239FE07B681B685B68CB
:1013740003F00203002BE5D17B681B7E012B08D10F
:101384007B681B681A687B681B6842F080021A60DD
:1013940007E07B681B681A687B681B6822F0800280
:1013A4001A607B685B7E012B08D17B681B681A6816
:1013B4007B681B6842F040021A6007E07B681B6888
:1013C4001A687B681B6822F040021A607B689B7E67
:1013D400012B08D17B681B681A687B681B6842F084
:1013E40020021A6007E07B681B681A687B681B6828
:1013F40022F020021A607B68DB7E012B08D17B6817
:101404001B681A687B681B6822F010021A6007E0E8
:101414007B681B681A687B681B6842F010021A60BC
:101424007B681B7F012B08D17B681B681A687B686B
:101434001B6842F008021A6007E07B681B681A68A0
:101444007B681B6822F008021A607B685B7F012BB3
:1014540008D17B681B681A687B681B6842F0040229
:101464001A6007E07B681B681A687B681B6822F0B7
:1014740004021A607B689A687B68DB681A437B689D
:101484001B691A437B685B6942EA03017B685B68FA
:101494005A1E7B681B680A43DA617B6800225A6221
:1014A4007B68012283F82020002318461037BD46AC
:1014B40080BD000080B487B000AF786039607B687D
:1014C4001B687B617B6893F82030FB74FB7C012BE9
:1014D40003D0FB7C022B40F0BE80654B7B617B69B3
:1014E400D3F8003243F001027B69C3F800227B6920
:1014F400D3F8003223F47C527B69C3F800227B6961
:10150400D3F800223B685B6A1B021A437B69C3F869
:1015140000223B685B6903F01F03012202FA03F314
:10152400FB607B69D3F81C22FB68DB431A407B69B0
:10153400C3F81C223B68DB69002B23D17B69D3F8F9
:101544000C22FB68DB431A407B69C3F80C223B681E
:10155400DB6819043B685B689BB23A6852691943BB
:101564007B69483243F832103B689B6819043B6836
:101574001B689AB23B685B690A4379694833DB00AC
:101584000B445A603B68DB69012B22D17B69D3F899
:101594000C22FB681A437B69C3F80C223B681B6866
:1015A40019043B685B689BB23A68526919437B69CA
:1015B400483243F832103B689B6819043B68DB6887
:1015C4009AB23B685B690A4379694833DB000B4490
:1015D4005A603B689B69002B09D17B69D3F80422CC
:1015E400FB68DB431A407B69C3F8042207E07B698C
:1015F400D3F80422FB681A437B69C3F804223B68CE
:101604001B69002B09D17B69D3F81422FB68DB43E7
:101614001A407B69C3F8142207E07B69D3F81422CB
:10162400FB681A437B69C3F814223B681B6A012BCD
:1016340007D17B69D3F81C22FB681A437B69C3F882
:101644001C227B69D3F8003223F001027B69C3F8C2
:101654000022002306E07B685B6A43F480227B68F7
:101664005A62012318461C37BD4680BC704700BF30
:101674000064004080B584B000AF78607B6893F864
:101684002030DBB2012B2ED17B68022283F820208C
:101694007B681B681A687B681B6822F001021A6069
:1016A400FFF7DEFDF86012E0FFF7DAFD0246FB68A3
:1016B400D31A0A2B0BD97B685B6A43F400327B682C
:1016C4005A627B68052283F82020012312E07B689C
:1016D4001B685B6803F00103002BE5D17B680022E3
:1016E4005A62002306E07B685B6A43F400227B684D
:1016F4005A62012318461037BD4680BD80B489B0B4
:1017040000AFF860B9607A603B60FB6893F8203002
:10171400FB77FB681B689B68BB61FB7F012B03D0D5
:10172400FB7F022B40F0AD80BB6903F08063002B8C
:101734000AD1BB6903F00063002B05D1BB6903F038
:101744008053002B00F09580BB691B0E03F003034C
:101754007B6101227B699A403B681A60BB689B6885
:10176400002B0DD1BB681B685A05BB68DB68F968A0
:1017740009681A437B6918331B010B441A600FE094
:10178400BB685B68DA00BB689B681A43BB68DB68AC
:10179400F96809681A437B6918331B010B441A6002
:1017A400FB681968BB681A697B6918331B010B4411
:1017B40004331A60BB681B7D012B11D1FB681A68C6
:1017C4007B6918331B01134404331B68FA681168DE
:1017D40043F480727B6918331B010B4404331A6091
:1017E4007B6807331B781A067B6806331B781B0457
:1017F4001A437B6805331B781B0213437A6804324F
:1018040012781046FA68116843EA00027B691B01EA
:101814000B4403F5C6731A607B6803331B781A06FE
:101824007B6802331B781B041A437B6801331B78E3
:101834001B0213437A6812781046FA68116843EA67
:1018440000027B691B010B4403F5C4731A60FB6837
:101854001A687B6918331B0113441B68FA68116802
:1018640043F001027B6918331B010B441A60002307
:101874000EE0FB685B6A43F40012FB685A620123C2
:1018840006E0FB685B6A43F48022FB685A6201232A
:1018940018462437BD4680BC704780B58AB000AF77
:1018A400786000237B627B681B685B693B627B68B2
:1018B4001B685B68FB617B681B689B68BB617B681A
:1018C4001B68DB687B617B681B681B693B617B6809
:1018D4001B689B69FB603B6A03F00103002B7CD00F
:1018E400BB6903F00103002B23D07B681B68012232
:1018F4009A60BB6903F00203002B03D0786800F000
:1019040083F916E0BB6903F00403002B04D07B6A5F
:1019140043F400637B620CE0BB6903F00803002B13
:1019240004D07B6A43F480537B6202E0786800F061
:1019340086F9BB6903F48073002B24D07B681B6891
:101944004FF480729A60BB6903F40073002B03D0D8
:10195400786800F062F916E0BB6903F48063002B39
:1019640004D07B6A43F400537B620CE0BB6903F44C
:101974000063002B04D07B6A43F480437B6202E063
:10198400786800F065F9BB6903F48033002B24D038
:101994007B681B684FF480329A60BB6903F40033A0
:1019A400002B03D0786800F041F916E0BB6903F41A
:1019B4008023002B04D07B6A43F400437B620CE059
:1019C400BB6903F40023002B04D07B6A43F4803307
:1019D4007B6202E0786800F044F93B6A03F0080394
:1019E400002B0CD07B6903F01003002B07D07B6A1B
:1019F40043F400737B627B681B681022DA603B6AE5
:101A040003F00403002B0BD07B6903F00803002BC5
:101A140006D07B681B680822DA60786800F033F926
:101A24003B6A03F00203002B09D07B681B68DB6868
:101A340003F00303002B02D0786800F01BF93B6A23
:101A440003F04003002B0CD03B6903F01003002B80
:101A540007D07B6A43F480637B627B681B68102237
:101A64001A613B6A03F02003002B0BD03B6903F09F
:101A74000803002B06D07B681B6808221A6178686B
:101A840000F013F93B6A03F01003002B09D07B68C4
:101A94001B681B6903F00303002B02D0786800F075
:101AA400FBF83B6A03F40033002B0BD0FB6903F013
:101AB4001003002B06D07B681B6810225A607868DC
:101AC40000F0FCF83B6A03F48033002B0BD0FB6975
:101AD40003F00803002B06D07B681B6808225A60B9
:101AE400786800F0F4F83B6A03F40043002B7BD0E1
:101AF400FB6903F00403002B72D03B6A03F4807388
:101B0400002B08D0FB6803F00103002B03D07B6A91
:101B140043F001037B623B6A03F40073002B08D09B
:101B2400FB6803F00203002B03D07B6A43F002033B
:101B34007B623B6A03F48063002B08D0FB6803F0EC
:101B44000403002B03D07B6A43F004037B623B6AEB
:101B540003F40063002B43D0FB6803F07003002BF5
:101B64003ED0FB6803F07003602B2BD0602B2ED883
:101B7400502B22D0502B2AD8402B19D0402B26D8BA
:101B8400302B10D0302B22D8102B02D0202B05D094
:101B94001DE07B6A43F008037B6219E07B6A43F033
:101BA40010037B6214E07B6A43F020037B620FE046
:101BB4007B6A43F040037B620AE07B6A43F0800364
:101BC4007B6205E07B6A43F480737B6200E000BFC4
:101BD4007B681B689A697B681B6822F070029A61B3
:101BE4007B681B6804225A607B6A002B08D07B68E0
:101BF4005A6A7B6A1A437B685A62786800F070F804
:101C040000BF2837BD4680BD80B483B000AF786084
:101C140000BF0C37BD4680BC704780B483B000AFB2
:101C2400786000BF0C37BD4680BC704780B483B079
:101C340000AF786000BF0C37BD4680BC704780B4ED
:101C440083B000AF786000BF0C37BD4680BC7047DE
:101C540080B483B000AF786000BF0C37BD4680BC51
:101C6400704780B483B000AF786000BF0C37BD46C6
:101C740080BC704780B483B000AF786000BF0C377D
:101C8400BD4680BC704780B483B000AF786000BFAD
:101C94000C37BD4680BC704780B483B000AF786019
:101CA40000BF0C37BD4680BC704780B483B000AF22
:101CB400786000BF0C37BD4680BC704780B483B0E9
:101CC40000AF786000BF0C37BD4680BC704780B45D
:101CD40083B000AF786000BF0C37BD4680BC70474E
:101CE40080B483B000AF786000BF0C37BD4680BCC1
:101CF4007047000080B485B000AF78607B6803F063
:101D04000703FB600C4BDB68BB60BA684FF6FF034C
:101D14001340BB60FB681A02BB68134343F0BF6304
:101D240043F40033BB60044ABB68D36000BF14377C
:101D3400BD4680BC704700BF00ED00E080B400AF3A
:101D4400044BDB681B0A03F007031846BD4680BC3E
:101D5400704700BF00ED00E080B483B000AF0346DD
:101D6400FB7197F90730002B0BDBFB7903F01F02A3
:101D7400064997F907305B09012000FA02F241F89D
:101D8400232000BF0C37BD4680BC704700E100E053
:101D940080B483B000AF03463960FB7197F9073014
:101DA400002B0ADB3B68DAB20C4997F907301201C1
:101DB400D2B20B4483F800230AE03B68DAB2084944
:101DC400FB7903F00F03043B1201D2B20B441A76E1
:101DD40000BF0C37BD4680BC704700BF00E100E087
:101DE40000ED00E080B489B000AFF860B9607A60BB
:101DF400FB6803F00703FB61FB69C3F10703042BD2
:101E040028BF0423BB61FB690433062B02D9FB6999
:101E1400033B00E000237B614FF0FF32BB6902FA11
:101E240003F3DA43BB681A407B699A404FF0FF31F1
:101E34007B6901FA03F3D9437B680B4013431846CB
:101E44002437BD4680BC704780B582B000AF78604F
:101E54007B68013BB3F1807F01D301230FE00A4A81
:101E64007B68013B53600F214FF0FF30FFF790FF79
:101E7400054B00229A60044B07221A60002318467F
:101E84000837BD4680BD00BF10E000E080B582B0D9
:101E940000AF78607868FFF72DFF00BF0837BD46B4
:101EA40080BD80B586B000AF0346B9607A60FB732D
:101EB40000237B61FFF742FF78617A68B96878692B
:101EC400FFF790FF024697F90F3011461846FFF7C7
:101ED4005FFF00BF1837BD4680BD80B582B000AF3C
:101EE4000346FB7197F907301846FFF735FF00BF2B
:101EF4000837BD4680BD80B582B000AF7860786891
:101F0400FFF7A2FF034618460837BD4680BD000010
:101F140080B48BB000AF7860396000237B6200230B
:101F24003B6269E101227B6A02FA03F3FB613B68CD
:101F34001B68FA691340BB61BA69FB699A4240F0B5
:101F440058813B685B689A4A93425ED0984A9342B0
:101F540075D8984A934258D0964A93426FD8964A75
:101F6400934252D0944A934269D8944A93424CD0B3
:101F7400924A934263D8924A934246D0904A9342FB
:101F84005DD8122B2AD8122B59D801A252F823F06B
:101F94000F200008E91F0008FB1F00083D2000086F
:101FA4004320000843200008432000084320000881
:101FB4004320000843200008432000084320000871
:101FC4004320000843200008432000084320000861
:101FD40043200008F11F000805200008794A9342B5
:101FE40013D02CE03B68DB683B6229E03B68DB688C
:101FF40004333B6224E03B68DB6808333B621FE048
:102004003B68DB680C333B621AE03B689B68002B3F
:1020140002D104233B6213E03B689B68012B05D18A
:1020240008233B627B68FA691A6109E008233B6272
:102034007B68FA695A6103E000233B6200E000BF59
:10204400BB69FF2B01D87B6801E07B6804337B61AB
:10205400BB69FF2B02D87B6A9B0002E07B6A083BCA
:102064009B003B617B691A680F213B6901FA03F30A
:10207400DB431A40396A3B6901FA03F31A437B696B
:102084001A603B685B6803F08053002B00F0B1805A
:102094004D4B9B694C4A43F0010393614A4B9B6946
:1020A40003F00103BB60BB68484A7B6A9B080233A8
:1020B40052F82330FB607B6A03F003039B000F227A
:1020C40002FA03F3DB43FA681340FB607B68404A7F
:1020D400934213D07B683F4A93420DD07B683E4ABB
:1020E400934207D07B683D4A934201D1032306E023
:1020F400042304E0022302E0012300E000237A6ABF
:1021040002F0030292009340FA681343FB602F49E4
:102114007B6A9B080233FA6841F823203B685B68BA
:1021240003F48013002B06D02D4B9A682C49BB690D
:1021340013438B6006E02A4B9A68BB69DB4328494A
:1021440013408B603B685B6803F40013002B06D0DC
:10215400234BDA682249BB691343CB6006E0204B6A
:10216400DA68BB69DB431E491340CB603B685B689C
:1021740003F40033002B06D0194B5A681849BB6985
:1021840013434B6006E0164B5A68BB69DB431449A2
:1021940013404B603B685B6803F48033002B21D011
:1021A4000F4B1A680E49BB6913430B6021E000BF53
:1021B4000000321000003110000022100000211035
:1021C4000000121000001110001002400000014035
:1021D40000080140000C01400010014000140140BF
:1021E400000401400B4B1A68BB69DB4309491340E7
:1021F4000B607B6A01337B623B681A687B6A22FA54
:1022040003F3002B7FF48EAE00BF00BF2C37BD4616
:1022140080BC70470004014080B485B000AF786092
:102224000B467B807B689A687B881340002B02D026
:102234000123FB7301E00023FB73FB7B1846143777
:10224400BD4680BC704780B483B000AF78600B4655
:102254007B8013467B707B78002B03D07A887B6865
:102264001A6103E07B881A047B681A6100BF0C378B
:10227400BD4680BC7047000080B400AF034B012210
:102284001A6000BFBD4680BC704700BF20000E42EC
:1022940080B586B000AF78607B68002B01D1012344
:1022A40004E37B681B6803F00103002B00F08780C4
:1022B400924B5B6803F00C03042B0CD08F4B5B68D0
:1022C40003F00C03082B12D18C4B5B6803F48033AE
:1022D400B3F5803F0BD1894B1B6803F40033002B0B
:1022E4006CD07B689B68002B68D10123DEE27B689D
:1022F4009B68B3F5803F06D1804B1B687F4A43F44B
:10230400803313602EE07B689B68002B0CD17B4BE1
:102314001B687A4A23F480331360784B1B68774A2E
:1023240023F4802313601DE07B689B68B3F5A02F22
:102334000CD1724B1B68714A43F4802313606F4BBA
:102344001B686E4A43F4803313600BE06B4B1B68CD
:102354006A4A23F480331360684B1B68674A23F48A
:10236400802313607B689B68002B13D0FEF778FFF3
:10237400386108E0FEF774FF02463B69D31A642B08
:1023840001D9032392E25D4B1B6803F40033002B55
:10239400F0D014E0FEF764FF386108E0FEF760FF58
:1023A40002463B69D31A642B01D903237EE2534BC3
:1023B4001B6803F40033002BF0D100E000BF7B68FE
:1023C4001B6803F00203002B63D04C4B5B6803F0E3
:1023D4000C03002B0BD0494B5B6803F00C03082B58
:1023E4001CD1464B5B6803F48033002B16D1434B5E
:1023F4001B6803F00203002B05D07B685B69012B8B
:1024040001D0012352E23D4B1B6823F0F8027B68A4
:102414009B69DB00394913430B603AE07B685B69D5
:10242400002B20D0364B01221A60FEF719FF3861C9
:1024340008E0FEF715FF02463B69D31A022B01D9C7
:10244400032333E22D4B1B6803F00203002BF0D06F
:102454002A4B1B6823F0F8027B689B69DB00274941
:1024640013430B6015E0264B00221A60FEF7F8FEBA
:10247400386108E0FEF7F4FE02463B69D31A022BEA
:1024840001D9032312E21D4B1B6803F00203002B46
:10249400F0D17B681B6803F00803002B3AD07B68FB
:1024A400DB69002B19D0174B01221A60FEF7D8FE06
:1024B400386108E0FEF7D4FE02463B69D31A022BCA
:1024C40001D90323F2E10D4B5B6A03F00203002BF5
:1024D400F0D0012000F0CAFB1CE00A4B00221A6075
:1024E400FEF7BEFE38610FE0FEF7BAFE02463B6916
:1024F400D31A022B08D90323D8E100BF00100240ED
:1025040000004242800442429B4B5B6A03F0020398
:10251400002BE9D17B681B6803F00403002B00F057
:10252400A6800023FB75944BDB6903F08053002BDA
:102534000DD1914BDB69904A43F08053D3618E4BAC
:10254400DB6903F08053BB60BB680123FB758B4BD5
:102554001B6803F48073002B18D1884B1B68874ACF
:1025640043F480731360FEF77BFE386108E0FEF7E6
:1025740077FE02463B69D31A642B01D9032395E104
:102584007E4B1B6803F48073002BF0D07B681B69BF
:10259400012B06D1784B1B6A774A43F0010313627F
:1025A4002DE07B681B69002B0CD1734B1B6A724AAC
:1025B40023F001031362704B1B6A6F4A23F0040378
:1025C40013621CE07B681B69052B0CD16A4B1B6AE8
:1025D400694A43F004031362674B1B6A664A43F07B
:1025E400010313620BE0644B1B6A634A23F001038B
:1025F4001362614B1B6A604A23F0040313627B6815
:102604001B69002B15D0FEF72BFE38610AE0FEF79C
:1026140027FE02463B69D31A41F28832934201D91C
:10262400032343E1544B1B6A03F00203002BEED057
:1026340014E0FEF715FE38610AE0FEF711FE0246CB
:102644003B69D31A41F28832934201D903232DE125
:10265400494B1B6A03F00203002BEED1FB7D012BD7
:1026640005D1454BDB69444A23F08053D3617B6831
:10267400DB6A002B00F08C803F4B5B6803F48033F3
:10268400B3F5803F0ED13C4B5B6803F00C03082B81
:1026940008D1394BDB6A03F48033B3F5803F01D1B1
:1026A400012303E17B68DB6A022B4ED1324B1B68AA
:1026B40003F08053002B09D02F4BDB6A03F0F002A8
:1026C4007B685B6B9A4201D00123EFE02C4B002224
:1026D4001A60FEF7C5FD386108E0FEF7C1FD024649
:1026E4003B69D31A642B01D90323DFE0224B1B6817
:1026F40003F00063002BF0D11F4BDB6A23F0F002E0
:102704007B685B6B1C491343CB621B4BDB6A23F472
:1027140070627B681B6B18491343CB62184B012210
:102724001A60FEF79DFD386108E0FEF799FD024648
:102734003B69D31A642B01D90323B7E00E4B1B6802
:1027440003F00063002BF0D022E00B4BDB6A0A4A53
:1027540023F48033D3620A4B00221A60FEF780FD13
:1027640038610FE0FEF77CFD02463B69D31A642B07
:1027740008D903239AE000BF001002400070004013
:10278400680042424B4B1B6803F00063002BE9D105
:102794007B681B6A002B00F08880464B5B6803F063
:1027A4000C03082B68D07B681B6A022B4DD1424B6B
:1027B40000221A60FEF754FD386108E0FEF750FD70
:1027C40002463B69D31A022B01D903236EE0394B2D
:1027D4001B6803F00073002BF0D17B685B6AB3F5D0
:1027E400803F0FD1334BDA6A7B685B68314913430E
:1027F400CB62304BDB6A23F00F027B68DB682D4928
:102804001343CB622B4B5B6823F474127B68596AC5
:102814007B689B6A0B43274913434B60264B012279
:102824001A60FEF71DFD386108E0FEF719FD024647
:102834003B69D31A022B01D9032337E01D4B1B68D4
:1028440003F00073002BF0D02FE01B4B00221A6022
:10285400FEF706FD386108E0FEF702FD02463B691B
:10286400D31A022B01D9032320E0124B1B6803F077
:102874000073002BF0D118E07B681B6A012B01D197
:10288400012313E00B4B5B68FB60FB6803F48032AD
:102894007B685B6A9A4206D1FB6803F470127B681A
:1028A4009B6A9A4201D0012300E00023184618379E
:1028B400BD4680BD001002406000424280B584B035
:1028C40000AF786039607B68002B01D10123D0E030
:1028D4006A4B1B6803F007033A689A4210D9674BA6
:1028E4001B6823F0070265493B6813430B60634B85
:1028F4001B6803F007033A689A4201D00123B8E049
:102904007B681B6803F00203002B20D07B681B68E4
:1029140003F00403002B05D0594B5B68584A43F479
:10292400E06353607B681B6803F00803002B05D049
:10293400534B5B68524A43F460535360504B5B689B
:1029440023F0F0027B689B684D4913434B607B681E
:102954001B6803F00103002B40D07B685B68012BEC
:1029640007D1474B1B6803F40033002B15D1012317
:102974007FE07B685B68022B07D1414B1B6803F047
:102984000073002B09D1012373E03D4B1B6803F056
:102994000203002B01D101236BE0394B5B6823F068
:1029A40003027B685B68364913434B60FEF758FCAF
:1029B400F8600AE0FEF754FC0246FB68D31A41F2C1
:1029C4008832934201D9032353E02D4B5B6803F013
:1029D4000C027B685B689B009A42EBD1274B1B6817
:1029E40003F007033A689A4210D2244B1B6823F081
:1029F400070222493B6813430B60204B1B6803F01A
:102A040007033A689A4201D0012332E07B681B68CD
:102A140003F00403002B08D0194B5B6823F4E06235
:102A24007B68DB68164913434B607B681B6803F0C3
:102A34000803002B09D0124B5B6823F460527B68B7
:102A44001B69DB000E4913434B6000F021F802467A
:102A54000B4B5B681B0903F00F030A49CB5C22FA9A
:102A640003F3094A1360094B1B681846FEF7B6FBCB
:102A7400002318461037BD4680BD00BF0020024029
:102A8400001002404C5500080400002008000020FB
:102A94002DE9B04F8EB000AF0023FB620023BB6270
:102AA40000237B6300237B6200233B6300233B62A0
:102AB4000023FB614E4B5B68FB62FB6A03F00C0373
:102AC400042B02D0082B03D089E04A4B3B6389E0F6
:102AD400FB6A9B0C03F00F02474B9B5C7B62FB6A17
:102AE40003F48033002B72D0414BDB6A03F00F02F6
:102AF400424B9B5CBB623E4BDB6A03F48033002B8E
:102B040053D03B4BDB6A1B0903F00F0301333B62D9
:102B1400374BDB6A1B0A03F00F030233FB61FB69CB
:102B240000229A4693467B6A00223B617A613B69A4
:102B340003FB0BF27B690AFB03F313443A69AAFB18
:102B440002010B4419462B4B03FB01F2002300FB4B
:102B540003F31344274AA0FB02452B441D463B6A5A
:102B64000022BB60FA60BB6A00223B607A60D7E94E
:102B740002010B46D7E900AB524602FB03F25B4667
:102B840084460CFB03F3134402465146A2FB01891D
:102B94004B44994642464B4620462946FDF740FBA6
:102BA40002460B4613467B6307E07B6A114A03FB2C
:102BB40002F2BB6AB2FBF3F37B630F4B5B7B1A46F7
:102BC4007B6A934208D17B6B5B087B6304E07B6A7E
:102BD4000B4A02FB03F37B637B6B3B6302E0094B11
:102BE4003B6300BF3B6B18463837BD46BDE8B08F2A
:102BF4000010024040787D016455000874550008B7
:102C040000093D0000127A0080B400AF024B1B683B
:102C14001846BD4680BC70470400002080B500AF54
:102C2400FFF7F2FF0246054B5B681B0A03F007033C
:102C34000349CB5C22FA03F3184680BD001002401E
:102C44005C55000880B500AFFFF7DEFF0246054B78
:102C54005B68DB0A03F007030349CB5C22FA03F346
:102C6400184680BD001002405C55000880B485B051
:102C740000AF78600A4B1B680A4AA2FB03235B0A75
:102C84007A6802FB03F3FB6000BFFB685A1EFA601C
:102C9400002BF9D100BF00BF1437BD4680BC70477C
:102CA40004000020D34D621080B588B000AF786076
:102CB40000237B6100233B610023FB617B681B686D
:102CC40003F00103002B7DD00023FB768B4BDB69E3
:102CD40003F08053002B0DD1884BDB69874A43F006
:102CE4008053D361854BDB6903F08053FB60FB6841
:102CF4000123FB76824B1B6803F48073002B18D1ED
:102D04007F4B1B687E4A43F480731360FEF7A8FA76
:102D1400786108E0FEF7A4FA02467B69D31A642BB3
:102D240001D90323E5E0764B1B6803F48073002B81
:102D3400F0D0724B1B6A03F440733B613B69002B78
:102D44002ED07B685B6803F440733A699A4227D0BB
:102D54006A4B1B6A23F440733B616A4B01221A607D
:102D6400684B00221A60654A3B6913623B6903F0B1
:102D74000103002B14D0FEF773FA78610AE0FEF722
:102D84006FFA02467B69D31A41F28832934201D921
:102D94000323AEE0594B1B6A03F00203002BEED071
:102DA400564B1B6A23F440727B685B685349134398
:102DB4000B62FB7E012B05D1504BDB694F4A23F09C
:102DC4008053D3617B681B6803F00203002B08D097
:102DD4004A4B5B6823F440427B689B684749134332
:102DE4004B607B681B6803F00403002B08D0434B43
:102DF400DB6A23F400327B68DB6840491343CB620F
:102E04007B681B6803F00803002B08D03B4BDB6A8C
:102E140023F480227B681B6938491343CB62374B08
:102E2400DB6A03F40033002B05D1344BDB6A03F473
:102E34008023002B01D00123FB61FB69012B48D1C6
:102E44002E4B1B6803F08053002B38D12B4B1B688F
:102E540003F08063002B09D0284BDB6A03F0F002F7
:102E64007B689B699A4201D0012342E0234BDB6AD1
:102E740023F0F0027B689B6920491343CB621F4B0C
:102E8400DB6A23F470427B685B691C491343CB62A1
:102E94001D4B01221A60FEF7E3F9786108E0FEF7A2
:102EA400DFF902467B69D31A642B01D9032320E09E
:102EB400124B1B6803F00053002BF0D009E00F4BBA
:102EC400DB6A03F470427B685B699A4201D0012398
:102ED4000FE07B681B6803F01003002B08D0074B3E
:102EE4005B6823F480027B68DB69044913434B600D
:102EF400002318462037BD4680BD00BF00100240A5
:102F040000700040400442427000424280B58AB0E2
:102F140000AF78600023FB6100237B620023BB6168
:102F240000237B6100233B610023FB600023BB6023
:102F340000233B627B68013B0F2B00F21D8101A241
:102F440052F823F0FD300008613100087D3100089B
:102F54005B3000087D3100087D3100087D310008B8
:102F6400AD3000087D3100087D3100087D31000856
:102F74007D3100087D3100087D3100087D31000875
:102F8400892F0008834B5B68BB60824B1B6803F08E
:102F94008073002B00F0F280BB689B0C03F00F03DE
:102FA4007D4AD35CBB61BB6803F48033002B3BD008
:102FB400784BDB6A03F00F03784AD35CFB61754BF3
:102FC400DB6A03F48033002B1CD0724BDB6A1B09D1
:102FD40003F00F030133FB606E4BDB6A1B0A03F043
:102FE4000F0302337B616E4AFB68B2FBF3F37A6929
:102FF40003FB02F2FB69B2FBF3F2BB6902FB03F3CE
:103004007B6207E0664AFB69B2FBF3F2BB6902FB31
:1030140003F37B62604B5B7B1A46BB69934208D126
:103024007B6A5B087B6204E0BB695E4A02FB03F3D4
:103034007B62584B5B6803F48003B3F5800F02D1C5
:103044007B6A3B629AE07B6A5B00574AA2FB0323DC
:103054005B083B6292E04F4BDB6A03F40033002BC6
:1030640003D1FFF715FD38628AE04A4B1B6803F071
:103074008053002B00F08480464BDB6A1B0903F06D
:103084000F030133FB60434BDB6A1B0B03F00F039D
:1030940002333B61424AFB68B2FBF3F33A6902FB39
:1030A40003F35B003B626BE03A4BDB6A03F480237F
:1030B400002B03D1FFF7ECFC386263E0354B1B684F
:1030C40003F08053002B5DD0324BDB6A1B0903F005
:1030D4000F030133FB602F4BDB6A1B0B03F00F0361
:1030E40002333B612E4AFB68B2FBF3F33A6902FBFD
:1030F40003F35B003B6245E0264B1B6ABB60BB6885
:1031040003F44073B3F5807F08D1BB6803F0020376
:10311400002B03D04FF400433B621EE0BB6803F472
:103124004073B3F5007F09D11A4B5B6A03F00203C5
:10313400002B03D049F640433B620EE0BB6803F426
:103144004073B3F5407F1FD1124B1B6803F4003367
:10315400002B19D0154B3B6216E015E0FFF772FD0A
:1031640002460C4B5B689B0B03F0030301335B00CB
:10317400B2FBF3F33B6208E000BF06E000BF04E0EB
:1031840000BF02E000BF00E000BF3B6A18462837DA
:10319400BD4680BD001002408455000894550008C7
:1031A40040787D0100093D00ABAAAAAAF0FA02000A
:1031B40080B584B000AF78600023FB607B68002B8F
:1031C40001D101237AE07B685B7CDBB2002B05D163
:1031D4007B6800221A747868FDF764FE7B6802221B
:1031E4005A74786800F070F80346002B04D07B68AA
:1031F40004225A74012361E0786800F092F80346CF
:10320400002B04D07B6804225A74012356E07B68A7
:103214001B685A687B681B6822F007025A607B6847
:103224009B68002B05D0274B1B6B264A23F0010318
:103234001363244BDB6A23F460727B689B68214927
:103244001343CB627B685B68B3F1FF3F03D07B68B9
:103254005B68FB600EE00120FFF758FEF860FB6836
:10326400002B04D17B6804225A74012326E0FB68F6
:10327400013BFB60FB681A0C7B681B6802F00F02C1
:103284009A607B681B68FA6892B2DA60786800F02A
:1032940070F80346002B04D07B6804225A7401237F
:1032A4000CE07B680022DA737B6801225A737B6826
:1032B40001229A737B6801225A740023184610373E
:1032C400BD4680BD006C004080B584B000AF78601E
:1032D4000023FB607B68002B01D101231DE07B6888
:1032E4001B685A687B681B6822F008025A60FDF765
:1032F400B7FFF86009E0FDF7B3FF0246FB68D31A95
:10330400B3F57A7F01D9032307E07B681B685B6808
:1033140003F00803002BEED0002318461037BD46F7
:1033240080BD80B584B000AF78600023FB60FDF7FA
:1033340097FFF86009E0FDF793FF0246FB68D31A94
:10334400B3F57A7F01D903230FE07B681B685B68C0
:1033540003F02003002BEED07B681B685A687B685F
:103364001B6842F010025A60002318461037BD460D
:1033740080BD80B584B000AF78600023FB607B68BB
:103384001B685A687B681B6822F010025A60FDF7BC
:1033940067FFF86009E0FDF763FF0246FB68D31A94
:1033A400B3F57A7F01D9032307E07B681B685B6868
:1033B40003F02003002BEED0002318461037BD463F
:1033C40080BD80B582B000AF78607B68002B01D1EE
:1033D400012376E07B685B6A002B08D17B685B681D
:1033E400B3F5827F09D07B680022DA6105E07B684F
:1033F40000221A617B6800225A617B6800229A626B
:103404007B6893F85130DBB2002B06D17B68002235
:1034140083F850207868FDF769FD7B68022283F801
:1034240051207B681B681A687B681B6822F0400285
:103434001A607B685B6803F482727B689B6803F4A0
:1034440004431A437B68DB6803F400631A437B6814
:103454001B6903F002031A437B685B6903F00103F1
:103464001A437B689B6903F400731A437B68DB6926
:1034740003F038031A437B681B6A03F0800342EAB3
:1034840003017B689B6A03F400527B681B680A4350
:103494001A607B689B691A0C7B681B6802F0040243
:1034A4005A607B681B68DA697B681B6822F40062D7
:1034B400DA617B6800225A657B68012283F8512017
:1034C400002318460837BD4680BD80B588B000AFDC
:1034D400F860B9603B601346FB800023FB77FB6810
:1034E40093F85030012B01D102232DE1FB68012216
:1034F40083F85020FDF7B4FEB861FB88FB82FB68BB
:1035040093F85130DBB2012B02D00223FB7716E192
:10351400BB68002B02D0FB88002B02D10123FB7770
:103524000DE1FB68032283F85120FB6800225A65F1
:10353400FB68BA681A63FB68FA889A86FB68FA889B
:10354400DA86FB6800229A63FB6800229A87FB688C
:103554000022DA87FB6800225A64FB6800221A649E
:10356400FB689B68B3F5004F0FD1FB681B681A68B2
:10357400FB681B6822F040021A60FB681B681A682B
:10358400FB681B6842F480421A60FB681B681B6876
:1035940003F04003402B07D0FB681B681A68FB68E4
:1035A4001B6842F040021A60FB68DB68B3F5006FE9
:1035B4004FD1FB685B68002B02D0FB8A012B42D100
:1035C400FB681B6B1A88FB681B68DA60FB681B6B63
:1035D4009A1CFB681A63FB68DB8E9BB2013B9AB2B0
:1035E400FB68DA862FE0FB681B689B6803F0020324
:1035F400022B12D1FB681B6B1A88FB681B68DA600C
:10360400FB681B6B9A1CFB681A63FB68DB8E9BB21E
:10361400013B9AB2FB68DA8615E0FDF721FE02460B
:10362400BB69D31A3A689A4203D83B68B3F1FF3FA7
:1036340002D13B68002B06D10323FB77FB680122F0
:1036440083F851207BE0FB68DB8E9BB2002BCAD150
:1036540050E0FB685B68002B02D0FB8A012B44D14D
:10366400FB681A6BFB681B680C3312781A70FB68D2
:103674001B6B5A1CFB681A63FB68DB8E9BB2013B15
:103684009AB2FB68DA8630E0FB681B689B6803F03B
:103694000203022B13D1FB681A6BFB681B680C3303
:1036A40012781A70FB681B6B5A1CFB681A63FB6860
:1036B400DB8E9BB2013B9AB2FB68DA8615E0FDF71C
:1036C400CFFD0246BB69D31A3A689A4203D83B68D5
:1036D400B3F1FF3F02D13B68002B06D10323FB77F4
:1036E400FB68012283F8512029E0FB68DB8E9BB242
:1036F400002BC9D1BA693968F86800F0CBFB0346DE
:10370400002B02D0FB6820225A65FB689B68002BC3
:103714000AD100233B61FB681B68DB683B61FB68E3
:103724001B689B683B613B69FB685B6D002B02D0A7
:103734000123FB7703E0FB68012283F85120FB6837
:10374400002283F85020FB7F18462037BD4680BDF9
:1037540080B588B002AFF860B9603B601346FB8067
:103764000023FB75FB6893F85130DBB2012B02D0C8
:103774000223FB75FBE0FB685B68B3F5827F12D123
:10378400FB689B68002B0ED1FB68042283F8512050
:10379400FA883B6800931346BA68B968F86800F081
:1037A400EFF80346E8E0FB6893F85030012B01D1B1
:1037B4000223E1E0FB68012283F85020FDF750FD6D
:1037C4003861BB68002B02D0FB88002B02D1012397
:1037D400FB75CCE0FB68042283F85120FB680022CF
:1037E4005A65FB68BA689A63FB68FA889A87FB682B
:1037F400FA88DA87FB6800221A63FB6800229A863B
:10380400FB680022DA86FB6800221A64FB68002247
:103814005A64FB689B68B3F5004F0FD1FB681B68C3
:103824001A68FB681B6822F040021A60FB681B6878
:103834001A68FB681B6822F480421A60FB681B68E4
:103844001B6803F04003402B07D0FB681B681A6811
:10385400FB681B6842F040021A60FB68DB68002BBF
:103864006AD132E0FB681B689B6803F00103012BFB
:1038740015D1FB681B6803F10C02FB689B6B127883
:10388400D2B21A70FB689B6B5A1CFB689A63FB6884
:10389400DB8F9BB2013B9AB2FB68DA8715E0FDF738
:1038A400DFFC02463B69D31A3A689A4203D83B6864
:1038B400B3F1FF3F02D13B68002B06D10323FB7514
:1038C400FB68012283F8512051E0FB68DB8F9BB237
:1038D400002BC7D135E0FB681B689B6803F001032C
:1038E400012B13D1FB681B68DA68FB689B6B92B2EF
:1038F4001A80FB689B6B9A1CFB689A63FB68DB8FDE
:103904009BB2013B9AB2FB68DA8715E0FDF7A8FC8D
:1039140002463B69D31A3A689A4203D83B68B3F12A
:10392400FF3F02D13B68002B06D10323FB75FB68E4
:10393400012283F851201AE0FB68DB8F9BB2002B35
:10394400C9D13A693968F86800F052FA0346002B85
:1039540002D0FB6820225A65FB685B6D002B02D005
:103964000123FB7503E0FB68012283F85120FB6807
:10397400002283F85020FB7D18461837BD4680BDD1
:1039840080B58CB000AFF860B9607A607B800123A9
:10399400FB62002387F82B30FB6893F85030012B2F
:1039A40001D1022398E1FB68012283F85020FDF73E
:1039B40057FC7862FB6893F8513087F82330FB6832
:1039C4005B68FB617B887B8397F82330012B0FD0E6
:1039D400FB69B3F5827F07D1FB689B68002B03D199
:1039E40097F82330042B03D0022387F82B306DE1A2
:1039F400BB68002B05D07B68002B02D07B88002B92
:103A040003D1012387F82B3060E1FB6893F8513030
:103A1400DBB2042B03D0FB68052283F85120FB683A
:103A240000225A65FB687A689A63FB687A88DA87A9
:103A3400FB687A889A87FB68BA681A63FB687A8895
:103A4400DA86FB687A889A86FB6800221A64FB6827
:103A540000225A64FB681B681B6803F04003402B78
:103A640007D0FB681B681A68FB681B6842F04002B9
:103A74001A60FB68DB68B3F5006F7CD1FB685B6898
:103A8400002B02D07B8B012B6AD1FB681B6B1A883D
:103A9400FB681B68DA60FB681B6B9A1CFB681A6383
:103AA400FB68DB8E9BB2013B9AB2FB68DA8657E077
:103AB400FB681B689B6803F00203022B1BD1FB68A5
:103AC400DB8E9BB2002B16D0FB6A012B13D1FB6853
:103AD4001B6B1A88FB681B68DA60FB681B6B9A1CFB
:103AE400FB681A63FB68DB8E9BB2013B9AB2FB68EE
:103AF400DA860023FB62FB681B689B6803F0010302
:103B0400012B19D1FB68DB8F9BB2002B14D0FB680F
:103B14001B68DA68FB689B6B92B21A80FB689B6B2C
:103B24009A1CFB689A63FB68DB8F9BB2013B9AB2D9
:103B3400FB68DA870123FB62FDF792FB02467B6A8E
:103B4400D31ABA6B9A420BD8BB6BB3F1FF3F07D0C1
:103B5400032387F82B30FB68012283F85120B5E05A
:103B6400FB68DB8E9BB2002BA2D1FB68DB8F9BB280
:103B7400002B9DD180E0FB685B68002B02D07B8B1F
:103B8400012B6FD1FB681A6BFB681B680C3312782E
:103B94001A70FB681B6B5A1CFB681A63FB68DB8E8C
:103BA4009BB2013B9AB2FB68DA865BE0FB681B6858
:103BB4009B6803F00203022B1CD1FB68DB8E9BB2D3
:103BC400002B17D0FB6A012B14D1FB681A6BFB681E
:103BD4001B680C3312781A70FB681B6B5A1CFB6849
:103BE4001A63FB68DB8E9BB2013B9AB2FB68DA86F0
:103BF4000023FB62FB681B689B6803F00103012B35
:103C040019D1FB68DB8F9BB2002B14D0FB681B68B7
:103C1400DA68FB689B6BD2B21A70FB689B6B5A1C08
:103C2400FB689A63FB68DB8F9BB2013B9AB2FB682B
:103C3400DA870123FB62FDF713FB02467B6AD31A82
:103C4400BA6B9A4203D8BB6BB3F1FF3F02D1BB6B93
:103C5400002B07D1032387F82B30FB68012283F85C
:103C6400512033E0FB68DB8E9BB2002B9ED1FB68B6
:103C7400DB8F9BB2002B99D17A6AB96BF86800F09C
:103C840009F90346002B06D0012387F82B30FB6883
:103C940020225A651AE0FB689B68002B0AD1002396
:103CA4007B61FB681B68DB687B61FB681B689B6846
:103CB4007B617B69FB685B6D002B03D0012387F874
:103CC4002B3003E0FB68012283F85120FB680022BB
:103CD40083F8502097F82B3018463037BD4680BD06
:103CE40080B588B000AFF860B9603B601346FB71E3
:103CF400FDF7B6FA0246BB6A9B1A3A681344FB61A5
:103D0400FDF7AEFAB861394B1B685B011B0DFA690C
:103D140002FB03F37B6154E03B68B3F1FF3F50D0F7
:103D2400FDF79EFA0246BB69D31AFA699A4202D990
:103D3400FB69002B3DD1FB681B685A68FB681B6854
:103D440022F0E0025A60FB685B68B3F5827F11D110
:103D5400FB689B68B3F5004F04D0FB689B68B3F520
:103D6400806F07D1FB681B681A68FB681B6822F028
:103D740040021A60FB689B6AB3F5005F0FD1FB68D1
:103D84001B681A68FB681B6822F400521A60FB68FF
:103D94001B681A68FB681B6842F400521A60FB68CF
:103DA400012283F85120FB68002283F8502003236A
:103DB40017E07B69002B01D10023FB617B69013B88
:103DC4007B61FB681B689A68BB681340BA689A42B7
:103DD4000CBF01230023DBB21A46FB799A429BD124
:103DE400002318462037BD4680BD00BF04000020D4
:103DF40080B586B002AFF860B9607A60FB685B6832
:103E0400B3F5827F11D1FB689B68B3F5004F04D0F2
:103E1400FB689B68B3F5806F07D1FB681B681A6861
:103E2400FB681B6822F040021A60FB685B68B3F50C
:103E3400827F17D1FB689B68B3F5806F12D17B68D2
:103E44000093BB6800220121F868FFF749FF03468D
:103E5400002B1AD0FB685B6D43F02002FB685A65A7
:103E6400032313E07B680093BB6800228021F86879
:103E7400FFF736FF0346002B07D0FB685B6D43F06A
:103E84002002FB685A65032300E00023184610371C
:103E9400BD4680BD80B586B002AFF860B9607A6077
:103EA4007B680093BB6800228021F868FFF718FF45
:103EB4000346002B07D0FB685B6D43F02002FB68D0
:103EC4005A65032300E0002318461037BD4680BD21
:103ED40080B582B000AF78607B68002B01D10123EC
:103EE40041E07B6893F83D30DBB2002B06D17B6860
:103EF400002283F83C207868FDF742F87B680222B0
:103F040083F83D207B681A687B68043319461046A1
:103F140000F0F4F87B68012283F846207B680122D4
:103F240083F83E207B68012283F83F207B680122CE
:103F340083F840207B68012283F841207B680122BA
:103F440083F842207B68012283F843207B680122A6
:103F540083F844207B68012283F845207B68012292
:103F640083F83D20002318460837BD4680BD80B540
:103F740084B000AF786039600023FB737B6893F8EA
:103F84003C30012B01D10223B4E07B68012283F889
:103F94003C207B68022283F83D207B681B689B6879
:103FA400BB60BB6823F07703BB60BB6823F47F432B
:103FB400BB607B681B68BA689A603B681B68B3F592
:103FC400005F3ED0B3F5005F00F28780B3F5805FF9
:103FD40000F08680B3F5805F7FD8702B1AD0702BE9
:103FE4007BD8602B50D0602B77D8502B3CD0502BF3
:103FF40073D8402B58D0402B6FD8302B64D0302B43
:104004006BD8202B60D0202B67D8002B5CD0102BD2
:104014005AD062E07B6818683B6899683B685A68C4
:104024003B68DB6800F04DF97B681B689B68BB60EC
:10403400BB6843F07703BB607B681B68BA689A600F
:104044004FE07B6818683B6899683B685A683B682E
:10405400DB6800F036F97B681B689A687B681B682C
:1040640042F480429A603CE07B6818683B68596877
:104074003B68DB681A4600F0ADF87B681B6850218A
:10408400184600F004F92CE07B6818683B6859680E
:104094003B68DB681A4600F0CBF87B681B6860213C
:1040A400184600F0F4F81CE07B6818683B6859680F
:1040B4003B68DB681A4600F08DF87B681B6840217A
:1040C400184600F0E4F80CE07B681A683B681B684B
:1040D4001946104600F0DBF803E00123FB7300E00F
:1040E40000BF7B68012283F83D207B68002283F8AF
:1040F4003C20FB7B18461037BD4680BD80B485B09C
:1041040000AF786039607B681B68FB607B682D4A70
:1041140093420FD07B68B3F1804F0BD07B682A4A5F
:10412400934207D07B68294A934203D07B68284A8C
:10413400934208D1FB6823F07003FB603B685B6823
:10414400FA681343FB607B681E4A93420FD07B6876
:10415400B3F1804F0BD07B681B4A934207D07B6836
:104164001A4A934203D07B68194A934208D1FB68E8
:1041740023F44073FB603B68DB68FA681343FB601D
:10418400FB6823F080023B685B691343FB607B6838
:10419400FA681A603B689A687B68DA623B681A6856
:1041A4007B689A627B68074A934203D13B681A6929
:1041B4007B681A637B6801225A6100BF1437BD46CD
:1041C40080BC7047002C01400004004000080040FF
:1041D400000C004080B487B000AFF860B9607A602A
:1041E400FB681B6A7B61FB681B6A23F00102FB68A6
:1041F4001A62FB689B693B613B6923F0F0033B61F6
:104204007B681B013A6913433B617B6923F00A0312
:104214007B617A69BB6813437B61FB683A699A6185
:10422400FB687A691A6200BF1C37BD4680BC7047C0
:1042340080B487B000AFF860B9607A60FB681B6A2D
:104244007B61FB681B6A23F01002FB681A62FB683F
:104254009B693B613B6923F470433B617B681B03AF
:104264003A6913433B617B6923F0A0037B61BB681C
:104274001B017A6913437B61FB683A699A61FB68A5
:104284007A691A6200BF1C37BD4680BC704780B48F
:1042940085B000AF786039607B689B68FB60FB6821
:1042A40023F07003FB603A68FB68134343F0070391
:1042B400FB607B68FA689A6000BF1437BD4680BC17
:1042C400704780B487B000AFF860B9607A603B6033
:1042D400FB689B687B617B6923F47F437B613B685C
:1042E4001A027B681A43BB6813437A6913437B61E0
:1042F400FB687A699A6000BF1C37BD4680BC704772
:1043040080B485B000AF786039607B6893F83C3046
:10431400012B01D102234BE07B68012283F83C206E
:104324007B68022283F83D207B681B685B68FB6026
:104334007B681B689B68BB60FB6823F07003FB60B1
:104344003B681B68FA681343FB607B681B68FA6868
:104354005A607B681B68194A934213D07B681B68B8
:10436400B3F1804F0ED07B681B68154A934209D085
:104374007B681B68134A934204D07B681B68124A0B
:1043840093420CD1BB6823F08003BB603B685B683D
:10439400BA681343BB607B681B68BA689A607B6821
:1043A400012283F83D207B68002283F83C2000230F
:1043B40018461437BD4680BC704700BF002C01402E
:1043C4000004004000080040000C004080B582B0AA
:1043D40000AF78607B68002B01D1012342E07B6849
:1043E40093F84130DBB2002B06D17B68002283F8BE
:1043F40040207868FCF7E2FD7B68242283F84120A2
:104404007B681B68DA687B681B6822F40052DA60F8
:10441400786800F0AFF97B681B681A697B681B68D1
:1044240022F490421A617B681B685A697B681B6896
:1044340022F02A025A617B681B68DA687B681B6871
:1044440042F40052DA607B6800225A647B682022BE
:1044540083F841207B68202283F842207B68002275
:104464005A63002318460837BD4680BD80B58AB01C
:1044740002AFF860B9603B601346FB8000237B61A8
:10448400FB6893F84130DBB2202B6DD1BB68002B65
:1044940002D0FB88002B01D1012366E0FB680022D7
:1044A4005A64FB68212283F84120FCF7D9FE786125
:1044B400FB68FA889A84FB68FA88DA84FB689B684C
:1044C400B3F5805F08D1FB681B69002B04D100237E
:1044D400FB61BB68BB6103E0BB68FB610023BB619C
:1044E4002AE03B6800937B6900228021F86800F091
:1044F400D2F80346002B01D0032336E0FB69002BDE
:104504000BD1BB691B881A46FB681B68C2F30802FF
:104514005A60BB690233BB6107E0FB691A78FB6828
:104524001B685A60FB690133FB61FB68DB8C9BB23F
:10453400013B9AB2FB68DA84FB68DB8C9BB2002BEC
:10454400CFD13B6800937B6900224021F86800F0DA
:10455400A2F80346002B01D0032306E0FB682022C7
:1045640083F84120002300E0022318462037BD468B
:1045740080BD80B58AB002AFF860B9603B60134675
:10458400FB8000237B61FB6893F84230DBB2202B75
:104594007CD1BB68002B02D0FB88002B01D1012306
:1045A40075E0FB6800225A64FB68222283F84220EB
:1045B400FB6800221A63FCF753FE7861FB68FA88F3
:1045C4009A85FB68FA88DA85FB689B68B3F5805F97
:1045D40008D1FB681B69002B04D10023FB61BB6875
:1045E400BB6103E0BB68FB610023BB6143E03B6844
:1045F40000937B6900222021F86800F04CF8034600
:10460400002B01D0032342E0FB69002B0CD1FB6893
:104614001B685B689BB2C3F308039AB2BB691A8038
:10462400BB690233BB611FE0FB689B68B3F5805F25
:1046340007D0FB689B68002B0AD1FB681B69002B21
:1046440006D1FB681B685B68DAB2FB691A7008E084
:10465400FB681B685B68DBB203F07F03DAB2FB69BB
:104664001A70FB690133FB61FB68DB8D9BB2013B74
:104674009AB2FB68DA85FB68DB8D9BB2002BB6D15E
:10468400FB68202283F84220002300E0022318461E
:104694002037BD4680BD80B590B000AFF860B960EA
:1046A4003B601346FB7150E0BB6CB3F1FF3F4CD051
:1046B400BB6C002B07D0FCF7D3FD02463B68D31A32
:1046C400BA6C9A4241D2FB681B680C33BB62BB6A6A
:1046D40053E8003F7B627B6A23F4D073FB63FB687F
:1046E4001B680C33FA6B7A633B63396B7A6B41E872
:1046F4000023FB62FB6A002BE5D1FB681B681433C3
:104704007B617B6953E8003F3B613B6923F0010314
:10471400BB63FB681B681433BA6B3A62FB61F969CB
:104724003A6A41E80023BB61BB69002BE5D1FB6811
:10473400202283F84120FB68202283F84220FB6872
:10474400002283F8402003230FE0FB681B681A68EB
:10475400BB681340BA689A420CBF01230023DBB242
:104764001A46FB799A429FD0002318464037BD462B
:1047740080BD000080B584B000AF78607B681B68A2
:104784001B6923F440517B68DA687B681B680A4321
:104794001A617B689A687B681B691A437B685B694A
:1047A4001343BB607B681B68DB6823F4B05323F0BE
:1047B4000C037A681268B9680B43D3607B681B6882
:1047C4005B6923F440717B689A697B681B680A43C0
:1047D4005A617B681B682C4A934203D1FEF732FA74
:1047E400F86002E0FEF71AFAF860FA6813469B00D4
:1047F40013449A001A447B685B689B00B2FBF3F392
:10480400224AA2FB03235B091901FA6813469B00A1
:1048140013449A001A447B685B689B00B2FBF3F272
:104824001A4BA3FB02035B09642000FB03F3D31AB6
:104834001B013233154AA2FB03235B0903F0F00387
:104844001944FA6813469B0013449A001A447B687F
:104854005B689B00B2FBF3F20C4BA3FB02035B0906
:10486400642000FB03F3D31A1B013233074AA2FB73
:1048740003235B0903F00F027B681B680A449A60F8
:1048840000BF1037BD4680BD003801401F85EB5185
:1048940080B483B000AF214B7B607B6803221A6134
:1048A4007B6803225A617B681D4A9A617B681D4AB2
:1048B400DA617B684FF480621A627B6800229A6234
:1048C4007B6800225A627B680022DA627B68144AA1
:1048D4001A667B68144A5A667B6810229A667B685B
:1048E40000221A677B680022DA667B6800225A6716
:1048F4007B6807330D4A106818607B680C4A10689F
:1049040018609188927999809A717B6820229A71B3
:1049140000BF0C37BD4680BC704700BF14020020A6
:1049240034550008BC020020BC0600204055000895
:104934004455000880B588B000AFF860B9607A606B
:104944000023BB61FB68DB687B61FB681B693B611F
:104954003A697B699A4205D93A697B69D31A013B62
:10496400FB6107E0FB689A6839697B69CB1A1344D9
:10497400013BFB61FB689A687B69D31AFA6993422D
:1049840028BF1346FB61FA697B68934228BF13462C
:10499400FB61FB685A687B691344FA69B968184675
:1049A40000F09AFCBA69FB691344BB61BA68FB69FD
:1049B4001344BB607A68FB69D31A7B607A69FB692C
:1049C40013447B61FB689B687A699A4201D1002396
:1049D4007B61FB687A69DA607B68002BB5D1BB69BF
:1049E40018462037BD4680BD80B588B000AFF8605A
:1049F400B9607A60FB68DB68FB61FB689A68FB69F5
:104A0400D31ABB61BA697B689A420ED9FB685A68AB
:104A1400FB6913447A68B968184600F05DFCFA69CA
:104A24007B681A44FB68DA601AE0BB697B61FB6847
:104A34005A68FB6913447A69B968184600F04CFC5B
:104A44007A68BB69D31A7B61FB685868BA68BB692A
:104A540013447A69194600F03FFCFB687A69DA600E
:104A640000BF2037BD4680BD80B487B000AF7860FA
:104A74007B681B693B617B68DB68FB603A69FB68A8
:104A84009A4208D87B689A68FB68D21A3B69134437
:104A9400013B7B6104E03A69FB68D31A013B7B610B
:104AA4007B6918461C37BD4680BC704780B588B00A
:104AB40000AFF860B9607A60BB68BB61FB685A1CE0
:104AC40013465B001344DB001F4A13447B617B697C
:104AD4005B69022B29D0022B2ED8002B02D0012B8C
:104AE40013D029E07869FFF7BFFF38613A697B6822
:104AF4009A4202D20023FB6121E07B68FB617A6861
:104B0400B9697869FFF770FF19E07869FFF7ACFFBE
:104B140038617A683B69934228BF1346FB61FA699E
:104B2400B9697869FFF760FF09E07A68B96978695B
:104B3400FFF700FFF86102E00023FB6100BFFB699F
:104B440018462037BD4680BD1402002080B586B0CB
:104B540000AFF860B9607A600D4B1B78002B01D16F
:104B6400FFF796FEEFF311834FF0200181F31188D4
:104B74007B617A68B968F868FFF798FF38617B69E8
:104B840083F311883B6918461837BD4680BD00BFC2
:104B94001402002080B584B000AF78600B46FB702F
:104BA4007B689B68FB60FB685A1C7B685B689A4265
:104BB4000ED87B681A68FB681344FA781A70FB688D
:104BC4005A1C7B689A607B68DB685A1C7B68DA60D5
:104BD4007B689A687B685B689A4215D17B68186920
:104BE4007B6819687B689B681A46FFF7AFFF02462B
:104BF4007B689B689A4204D07B684FF0FF32DA608E
:104C040002E07B6800229A6000BF1037BD4680BD79
:104C140080B58AB000AFF860B9607A603B60BB6869
:104C24003B6201237B620123FB6107E03A6A7B68F4
:104C3400B2FBF3F33B62FB690133FB613A6A7B68C5
:104C44009A42F3D23A68FB699A4201D93B68FB6104
:104C54007B6B03F00103002B25D13B6B002B22D08F
:104C64007B6B03F00203002B05D03B68002B02D1C1
:104C74003023FB7601E02023FB760BE03B6B013B0A
:104C84003B63FB7E1946F868FFF784FFFB68DB682B
:104C9400002B07DB3B6B002B05D0FA693B6B9A4278
:104CA400ECD300E000BFFB68DB68002B55DB3B68FE
:104CB400012B03D93B68013B3B6009E0BA687B6A7E
:104CC400B2FBF3F37B617A697B689A4200D205E018
:104CD4007B6A7A6802FB03F37B62E8E7BA687B6A63
:104CE400B2FBF3F37B617B697A6A02FB03F3BA6874
:104CF400D31ABB601B4A7B6913441B781946F868B6
:104D0400FFF748FFFB68DB68002B08DB7A6A7B68E7
:104D1400B2FBF3F37B627B6A002BDFD100E000BFC0
:104D24007B6B03F00103002B17D03B6B002B14D0DB
:104D34000AE03B6B013B3B632021F868FFF72AFF45
:104D4400FB68DB68002B07DB3B6B002B05D0FA69A3
:104D54003B6B9A42EDD300E000BF00BF2837BD464D
:104D640080BD00BFA455000880B588B002AFF860CC
:104D7400B9607A603B60BB68002BB8BF5B423B61A3
:104D840001237B6107E07B683A6992FBF3F33B61A3
:104D94007B6901337B617B683A699A42F3DA3A684A
:104DA4007B699A4201D93B687B613B6A002B0AD03C
:104DB400BB68002B04DB7B6A03F00403002B02D0E6
:104DC4003B6A013B3B627B6A03F00203002B02D087
:104DD4003B68002B1CD07B6A03F00103002B17D126
:104DE4003B6A002B14D00AE03B6A013B3B62202162
:104DF400F868FFF7CFFEFB68DB68002B07DB3B6A34
:104E0400002B05D07A693B6A9A42EDD300E000BFDB
:104E1400FB68DB68002B4ADBBB68002B07DABB6846
:104E24005B42BB602D21F868FFF7B4FE08E07B6AA3
:104E340003F00403002B03D02B21F868FFF7AAFE2C
:104E4400FB68DB68002B32DB7B6A03F00203002B78
:104E54001FD07B6A03F00103002B1AD13B68002B9F
:104E640017D13B6A002B14D00AE03B6A013B3B623A
:104E74003021F868FFF78EFEFB68DB68002B07DB48
:104E84003B6A002B05D07A693B6A9A42EDD300E075
:104E940000BFFB68DB68002B09DBB9687B6A019300
:104EA4003B6A00933B687A68F868FFF7B1FE00BF7D
:104EB4001837BD4680BD000080B5A2B002AFF860CF
:104EC400B9607A6007F110033B6540237B650023DA
:104ED400BB65FB683B660023FB65BB681B7887F8F2
:104EE4007F30BB680133BB6097F87F30002B00F044
:104EF4009F8197F87F30252B40F08D8100233B67FD
:104F04000123BB67BB681B7887F87F3097F87F3035
:104F1400233B0D2B3ED801A252F823F0894F000801
:104F2400994F0008994F0008994F0008994F0008BD
:104F3400994F0008994F0008994F0008794F0008CD
:104F4400994F0008594F0008994F0008994F0008DD
:104F5400694F00083B6F43F001033B67BB680133B3
:104F6400BB601AE03B6F43F002033B67BB6801334D
:104F7400BB6012E03B6F43F004033B67BB68013343
:104F8400BB600AE03B6F43F008033B67BB68013337
:104F9400BB6002E00023BB6700BFBB6F002BB1D135
:104FA4000023FB66BB681B7887F87F3097F87F3057
:104FB4002F2B12D997F87F30392B0ED8BB680133C9
:104FC400BB60FA6E13469B0013445B001A4697F8C5
:104FD4007F301344303BFB66E4E700237B67BB6808
:104FE4001B7887F87F3097F87F302E2B1DD1BB6854
:104FF4000133BB60BB681B7887F87F3097F87F303C
:105004002F2B12D997F87F30392B0ED8BB68013378
:10501400BB607A6F13469B0013445B001A4697F8F3
:105024007F301344303B7B67E4E7BB681B7887F829
:105034007F3097F87F306C2B03D097F87F30682B44
:1050440007D1BB680133BB60BB681B7887F87F302E
:10505400EFE797F87F30252B00F0D180252BC0F2A5
:10506400D580782B00F3D280582BC0F2CF80583BE8
:10507400202B00F2CB8001A252F823F077510008D4
:105084001152000811520008115200081152000870
:105094001152000811520008115200081152000860
:1050A4001152000811520008055100082B51000844
:1050B4001152000811520008115200081152000840
:1050C4001152000811520008115200081152000830
:1050D400115200081152000811520008DD51000855
:1050E40011520008115200089D5100081152000885
:1050F400515100081152000811520008775100085C
:105104007B681B68191D7A6811601B68BB67BB6FDD
:1051140087F8673097F8672007F15003114618465F
:10512400FFF738FD73E07B681B68191D7A6811600E
:105134001B68BB6707F150003B6F0193FB6E009344
:105144007B6F0A22B96FFFF70FFE60E07B681B6874
:10515400191D7A6811601B68BB67B96F07F15000AD
:105164003B6F0193FB6E00937B6F0A22FFF750FDA8
:105174004DE07B681B68191D7A6811601B68BB676A
:10518400B96F07F150003B6F0193FB6E00937B6F87
:105194001022FFF73DFD3AE07B681B68191D7A6811
:1051A40011601B68BB66BB6E1B7887F87F30BB6ED3
:1051B4000133BB6697F87F30002B0BD097F87F2024
:1051C40007F1500311461846FFF7E4FCFB6D002B72
:1051D400E9DA1CE000BF1AE07B681B68191D7A68D5
:1051E40011601B68BB67B96F07F15000002301937E
:1051F4000823009308231022FFF70AFD07E007F1B4
:10520400500325211846FFF7C5FC00E000BFBB682A
:105214000133BB6007E097F87F2007F15003114684
:105224001846FFF7B7FCFB6D002BBFF656AE00E047
:1052340000BFFB6D002B0DDDBB6D002B06D0BA6DDE
:1052440007F110031946F868FFF780FCFB6DBA6D8F
:105254001344FB65FB6D18468037BD4680BD00BF17
:105264000EB480B585B000AF786007F12003BB6051
:1052740007F108031A46F9697868FFF71DFEF8601C
:10528400FB6818461437BD46BDE8804003B070473C
:1052940070B500260C4D0D4C641BA410A64209D118
:1052A40000F030F800260A4D0A4C641BA410A642F4
:1052B40005D170BD55F8043B98470136EEE755F823
:1052C400043B98470136F2E7BC550008BC5500087A
:1052D400BC550008C05500080A44914200F1FF3350
:1052E40000D1704710B511F8014B914203F8014FFA
:1052F400F9D110BD03460244934200D1704703F82C
:10530400011BF9E7F8B500BFF8BC08BC9E4670471E
:0C531400F8B500BFF8BC08BC9E4670470E
:10532000494D4F555420434C4F534544202E2E2E6B
:105330000D0A000049474E5F5041305F4F5F66697C
:1053400072737420566F6C746167653A2025640D22
:105350000A0000004445564943454944203D202564
:1053600030365820000000005561727431204441ED
:1053700054412049533A2000253032582000000083
:105380000D0A000047455420544845205265737566
:105390006C7420444154412066726F6D204E524619
:1053A0000D0A00004765742074686520726967689B
:1053B0007420446576696365204944200D0A000025
:1053C00043414E5F53454E54204F55540D0A000043
:1053D00055617274315F4C4F4F502044415441200D
:1053E00049532074696D656F7574200D0A000000C3
:1053F00055617274315F4C4F4F50204441544120ED
:105400004953206572726F72200D0A00436C65610A
:105410006E696E672062756666657220666F7220BF
:105420007561727431000000747830203D2025735E
:10543000200D0A0074783239203D202573200D0A92
:105440000000000047455420746865207269676851
:105450007420646174612066726F6D204E52460044
:1054600049474E5F5041305F4F5F7365636F6E64B5
:1054700020566F6C746167653A2025640D0A000040
:1054800049474E20544553542050415353200D0A50
:10549000000000005561727433204441544120499A
:1054A000533A2000474554205448452046696E61D0
:1054B0006C20636F6E6669726D2066726F6D204539
:1054C000535033320D0A0000494D4F5554204F5070
:1054D000454E202E2E2E0D0A00000000494D454954
:1054E000264445564943452049445F53454E542080
:1054F0004F55540D0A00000055617274335F4C4FD4
:105500004F5020444154412049532074696D656FC8
:105510007574200D0A00000055617274335F4C4FA2
:105520004F502044415441204953206572726F729C
:10553000200D0A005465726D696E616C00000000F8
:1055400052545400534547474552000000000000A4
:105550000000000001020304060708090000000023
:10556000010203040000040506070809000000000A
:10557000000D00000102030405060708090A0B0CD0
:105580000D0E0F10000004050607080900000000BA
:10559000000D00000102030405060708090A0B0CB0
:1055A0000D0E0F1030313233343536373839414231
:0455B00043444546E5
:0855B400A0ACFF7F0100000024
:0455BC0009020008D8
:0455C000E5010008F9
:1055C400010000000024F4001000000001000000AD
:040000050800116975
:00000001FF
